{
  "contractName": "BBronze",
  "abi": [
    {
      "inputs": [],
      "name": "getColor",
      "outputs": [
        {
          "internalType": "bytes32",
          "name": "",
          "type": "bytes32"
        }
      ],
      "stateMutability": "view",
      "type": "function"
    }
  ],
  "bytecode": "0x6080604052348015600f57600080fd5b5060888061001e6000396000f3fe6080604052348015600f57600080fd5b506004361060285760003560e01c80639a86139b14602d575b600080fd5b60336045565b60408051918252519081900360200190f35b6542524f4e5a4560d01b9056fea2646970667358221220a1dd1ea185e9d196cd106b78f56277270ae9c77f912f6bec9305d86606623f4564736f6c634300060c0033",
  "immutableReferences": {},
  "source": "// SPDX-License-Identifier: GPL-3.0-or-later\npragma solidity ^0.6.6;\n\n// abstract contract BColor {\n//     function getColor()\n//         external view virtual\n//         returns (bytes32);\n// }\n\ncontract BBronze {\n    function getColor()\n        external view\n        returns (bytes32) {\n            return bytes32(\"BRONZE\");\n        }\n}\n",
  "sourcePath": "/home/servatj/os/real-fund-smartpool/contracts/realfundBalancer/test/BColor.sol",
  "compiler": {
    "name": "solc",
    "version": "0.6.12+commit.27d51765.Emscripten.clang"
  },
  "schemaVersion": "3.3.1",
  "updatedAt": "2020-11-08T13:27:03.771Z",
  "devdoc": {
    "kind": "dev",
    "methods": {},
    "version": 1
  },
  "userdoc": {
    "kind": "user",
    "methods": {},
    "version": 1
  }
}