{
  "contractName": "ConfigurableRightsPool",
  "abi": [
    {
      "inputs": [
        {
          "internalType": "address",
          "name": "factoryAddress",
          "type": "address"
        },
        {
          "components": [
            {
              "internalType": "string",
              "name": "poolTokenSymbol",
              "type": "string"
            },
            {
              "internalType": "string",
              "name": "poolTokenName",
              "type": "string"
            },
            {
              "internalType": "address[]",
              "name": "constituentTokens",
              "type": "address[]"
            },
            {
              "internalType": "uint256[]",
              "name": "tokenBalances",
              "type": "uint256[]"
            },
            {
              "internalType": "uint256[]",
              "name": "tokenWeights",
              "type": "uint256[]"
            },
            {
              "internalType": "uint256",
              "name": "swapFee",
              "type": "uint256"
            }
          ],
          "internalType": "struct ConfigurableRightsPool.PoolParams",
          "name": "poolParams",
          "type": "tuple"
        },
        {
          "components": [
            {
              "internalType": "bool",
              "name": "canPauseSwapping",
              "type": "bool"
            },
            {
              "internalType": "bool",
              "name": "canChangeSwapFee",
              "type": "bool"
            },
            {
              "internalType": "bool",
              "name": "canChangeWeights",
              "type": "bool"
            },
            {
              "internalType": "bool",
              "name": "canAddRemoveTokens",
              "type": "bool"
            },
            {
              "internalType": "bool",
              "name": "canWhitelistLPs",
              "type": "bool"
            },
            {
              "internalType": "bool",
              "name": "canChangeCap",
              "type": "bool"
            }
          ],
          "internalType": "struct RightsManager.Rights",
          "name": "rightsStruct",
          "type": "tuple"
        }
      ],
      "stateMutability": "nonpayable",
      "type": "constructor"
    },
    {
      "anonymous": false,
      "inputs": [
        {
          "indexed": true,
          "internalType": "address",
          "name": "owner",
          "type": "address"
        },
        {
          "indexed": true,
          "internalType": "address",
          "name": "spender",
          "type": "address"
        },
        {
          "indexed": false,
          "internalType": "uint256",
          "name": "value",
          "type": "uint256"
        }
      ],
      "name": "Approval",
      "type": "event"
    },
    {
      "anonymous": false,
      "inputs": [
        {
          "indexed": true,
          "internalType": "address",
          "name": "caller",
          "type": "address"
        },
        {
          "indexed": false,
          "internalType": "uint256",
          "name": "oldCap",
          "type": "uint256"
        },
        {
          "indexed": false,
          "internalType": "uint256",
          "name": "newCap",
          "type": "uint256"
        }
      ],
      "name": "CapChanged",
      "type": "event"
    },
    {
      "anonymous": true,
      "inputs": [
        {
          "indexed": true,
          "internalType": "bytes4",
          "name": "sig",
          "type": "bytes4"
        },
        {
          "indexed": true,
          "internalType": "address",
          "name": "caller",
          "type": "address"
        },
        {
          "indexed": false,
          "internalType": "bytes",
          "name": "data",
          "type": "bytes"
        }
      ],
      "name": "LogCall",
      "type": "event"
    },
    {
      "anonymous": false,
      "inputs": [
        {
          "indexed": true,
          "internalType": "address",
          "name": "caller",
          "type": "address"
        },
        {
          "indexed": true,
          "internalType": "address",
          "name": "tokenOut",
          "type": "address"
        },
        {
          "indexed": false,
          "internalType": "uint256",
          "name": "tokenAmountOut",
          "type": "uint256"
        }
      ],
      "name": "LogExit",
      "type": "event"
    },
    {
      "anonymous": false,
      "inputs": [
        {
          "indexed": true,
          "internalType": "address",
          "name": "caller",
          "type": "address"
        },
        {
          "indexed": true,
          "internalType": "address",
          "name": "tokenIn",
          "type": "address"
        },
        {
          "indexed": false,
          "internalType": "uint256",
          "name": "tokenAmountIn",
          "type": "uint256"
        }
      ],
      "name": "LogJoin",
      "type": "event"
    },
    {
      "anonymous": false,
      "inputs": [
        {
          "indexed": true,
          "internalType": "address",
          "name": "token",
          "type": "address"
        },
        {
          "indexed": true,
          "internalType": "address",
          "name": "pool",
          "type": "address"
        },
        {
          "indexed": true,
          "internalType": "address",
          "name": "caller",
          "type": "address"
        }
      ],
      "name": "NewTokenCommitted",
      "type": "event"
    },
    {
      "anonymous": false,
      "inputs": [
        {
          "indexed": true,
          "internalType": "address",
          "name": "previousOwner",
          "type": "address"
        },
        {
          "indexed": true,
          "internalType": "address",
          "name": "newOwner",
          "type": "address"
        }
      ],
      "name": "OwnershipTransferred",
      "type": "event"
    },
    {
      "anonymous": false,
      "inputs": [
        {
          "indexed": true,
          "internalType": "address",
          "name": "from",
          "type": "address"
        },
        {
          "indexed": true,
          "internalType": "address",
          "name": "to",
          "type": "address"
        },
        {
          "indexed": false,
          "internalType": "uint256",
          "name": "value",
          "type": "uint256"
        }
      ],
      "name": "Transfer",
      "type": "event"
    },
    {
      "inputs": [],
      "name": "DECIMALS",
      "outputs": [
        {
          "internalType": "uint8",
          "name": "",
          "type": "uint8"
        }
      ],
      "stateMutability": "view",
      "type": "function"
    },
    {
      "inputs": [],
      "name": "DEFAULT_ADD_TOKEN_TIME_LOCK_IN_BLOCKS",
      "outputs": [
        {
          "internalType": "uint256",
          "name": "",
          "type": "uint256"
        }
      ],
      "stateMutability": "view",
      "type": "function"
    },
    {
      "inputs": [],
      "name": "DEFAULT_MIN_WEIGHT_CHANGE_BLOCK_PERIOD",
      "outputs": [
        {
          "internalType": "uint256",
          "name": "",
          "type": "uint256"
        }
      ],
      "stateMutability": "view",
      "type": "function"
    },
    {
      "inputs": [],
      "name": "NAME",
      "outputs": [
        {
          "internalType": "string",
          "name": "",
          "type": "string"
        }
      ],
      "stateMutability": "view",
      "type": "function"
    },
    {
      "inputs": [],
      "name": "addTokenTimeLockInBlocks",
      "outputs": [
        {
          "internalType": "uint256",
          "name": "",
          "type": "uint256"
        }
      ],
      "stateMutability": "view",
      "type": "function"
    },
    {
      "inputs": [
        {
          "internalType": "address",
          "name": "owner",
          "type": "address"
        },
        {
          "internalType": "address",
          "name": "spender",
          "type": "address"
        }
      ],
      "name": "allowance",
      "outputs": [
        {
          "internalType": "uint256",
          "name": "",
          "type": "uint256"
        }
      ],
      "stateMutability": "view",
      "type": "function"
    },
    {
      "inputs": [
        {
          "internalType": "address",
          "name": "spender",
          "type": "address"
        },
        {
          "internalType": "uint256",
          "name": "amount",
          "type": "uint256"
        }
      ],
      "name": "approve",
      "outputs": [
        {
          "internalType": "bool",
          "name": "",
          "type": "bool"
        }
      ],
      "stateMutability": "nonpayable",
      "type": "function"
    },
    {
      "inputs": [],
      "name": "bFactory",
      "outputs": [
        {
          "internalType": "contract IBFactory",
          "name": "",
          "type": "address"
        }
      ],
      "stateMutability": "view",
      "type": "function"
    },
    {
      "inputs": [],
      "name": "bPool",
      "outputs": [
        {
          "internalType": "contract IBPool",
          "name": "",
          "type": "address"
        }
      ],
      "stateMutability": "view",
      "type": "function"
    },
    {
      "inputs": [
        {
          "internalType": "address",
          "name": "account",
          "type": "address"
        }
      ],
      "name": "balanceOf",
      "outputs": [
        {
          "internalType": "uint256",
          "name": "",
          "type": "uint256"
        }
      ],
      "stateMutability": "view",
      "type": "function"
    },
    {
      "inputs": [],
      "name": "bspCap",
      "outputs": [
        {
          "internalType": "uint256",
          "name": "",
          "type": "uint256"
        }
      ],
      "stateMutability": "view",
      "type": "function"
    },
    {
      "inputs": [],
      "name": "decimals",
      "outputs": [
        {
          "internalType": "uint8",
          "name": "",
          "type": "uint8"
        }
      ],
      "stateMutability": "pure",
      "type": "function"
    },
    {
      "inputs": [
        {
          "internalType": "address",
          "name": "spender",
          "type": "address"
        },
        {
          "internalType": "uint256",
          "name": "amount",
          "type": "uint256"
        }
      ],
      "name": "decreaseApproval",
      "outputs": [
        {
          "internalType": "bool",
          "name": "",
          "type": "bool"
        }
      ],
      "stateMutability": "nonpayable",
      "type": "function"
    },
    {
      "inputs": [],
      "name": "getController",
      "outputs": [
        {
          "internalType": "address",
          "name": "",
          "type": "address"
        }
      ],
      "stateMutability": "view",
      "type": "function"
    },
    {
      "inputs": [],
      "name": "gradualUpdate",
      "outputs": [
        {
          "internalType": "uint256",
          "name": "startBlock",
          "type": "uint256"
        },
        {
          "internalType": "uint256",
          "name": "endBlock",
          "type": "uint256"
        }
      ],
      "stateMutability": "view",
      "type": "function"
    },
    {
      "inputs": [
        {
          "internalType": "address",
          "name": "spender",
          "type": "address"
        },
        {
          "internalType": "uint256",
          "name": "amount",
          "type": "uint256"
        }
      ],
      "name": "increaseApproval",
      "outputs": [
        {
          "internalType": "bool",
          "name": "",
          "type": "bool"
        }
      ],
      "stateMutability": "nonpayable",
      "type": "function"
    },
    {
      "inputs": [],
      "name": "minimumWeightChangeBlockPeriod",
      "outputs": [
        {
          "internalType": "uint256",
          "name": "",
          "type": "uint256"
        }
      ],
      "stateMutability": "view",
      "type": "function"
    },
    {
      "inputs": [],
      "name": "name",
      "outputs": [
        {
          "internalType": "string",
          "name": "",
          "type": "string"
        }
      ],
      "stateMutability": "view",
      "type": "function"
    },
    {
      "inputs": [],
      "name": "newToken",
      "outputs": [
        {
          "internalType": "address",
          "name": "addr",
          "type": "address"
        },
        {
          "internalType": "bool",
          "name": "isCommitted",
          "type": "bool"
        },
        {
          "internalType": "uint256",
          "name": "commitBlock",
          "type": "uint256"
        },
        {
          "internalType": "uint256",
          "name": "denorm",
          "type": "uint256"
        },
        {
          "internalType": "uint256",
          "name": "balance",
          "type": "uint256"
        }
      ],
      "stateMutability": "view",
      "type": "function"
    },
    {
      "inputs": [],
      "name": "rights",
      "outputs": [
        {
          "internalType": "bool",
          "name": "canPauseSwapping",
          "type": "bool"
        },
        {
          "internalType": "bool",
          "name": "canChangeSwapFee",
          "type": "bool"
        },
        {
          "internalType": "bool",
          "name": "canChangeWeights",
          "type": "bool"
        },
        {
          "internalType": "bool",
          "name": "canAddRemoveTokens",
          "type": "bool"
        },
        {
          "internalType": "bool",
          "name": "canWhitelistLPs",
          "type": "bool"
        },
        {
          "internalType": "bool",
          "name": "canChangeCap",
          "type": "bool"
        }
      ],
      "stateMutability": "view",
      "type": "function"
    },
    {
      "inputs": [
        {
          "internalType": "address",
          "name": "newOwner",
          "type": "address"
        }
      ],
      "name": "setController",
      "outputs": [],
      "stateMutability": "nonpayable",
      "type": "function"
    },
    {
      "inputs": [],
      "name": "symbol",
      "outputs": [
        {
          "internalType": "string",
          "name": "",
          "type": "string"
        }
      ],
      "stateMutability": "view",
      "type": "function"
    },
    {
      "inputs": [],
      "name": "totalSupply",
      "outputs": [
        {
          "internalType": "uint256",
          "name": "",
          "type": "uint256"
        }
      ],
      "stateMutability": "view",
      "type": "function"
    },
    {
      "inputs": [
        {
          "internalType": "address",
          "name": "recipient",
          "type": "address"
        },
        {
          "internalType": "uint256",
          "name": "amount",
          "type": "uint256"
        }
      ],
      "name": "transfer",
      "outputs": [
        {
          "internalType": "bool",
          "name": "",
          "type": "bool"
        }
      ],
      "stateMutability": "nonpayable",
      "type": "function"
    },
    {
      "inputs": [
        {
          "internalType": "address",
          "name": "sender",
          "type": "address"
        },
        {
          "internalType": "address",
          "name": "recipient",
          "type": "address"
        },
        {
          "internalType": "uint256",
          "name": "amount",
          "type": "uint256"
        }
      ],
      "name": "transferFrom",
      "outputs": [
        {
          "internalType": "bool",
          "name": "",
          "type": "bool"
        }
      ],
      "stateMutability": "nonpayable",
      "type": "function"
    },
    {
      "inputs": [],
      "name": "getAddress",
      "outputs": [
        {
          "internalType": "address",
          "name": "",
          "type": "address"
        }
      ],
      "stateMutability": "view",
      "type": "function"
    },
    {
      "inputs": [
        {
          "internalType": "uint256",
          "name": "swapFee",
          "type": "uint256"
        }
      ],
      "name": "setSwapFee",
      "outputs": [],
      "stateMutability": "nonpayable",
      "type": "function"
    },
    {
      "inputs": [],
      "name": "isPublicSwap",
      "outputs": [
        {
          "internalType": "bool",
          "name": "",
          "type": "bool"
        }
      ],
      "stateMutability": "view",
      "type": "function"
    },
    {
      "inputs": [
        {
          "internalType": "uint256",
          "name": "newCap",
          "type": "uint256"
        }
      ],
      "name": "setCap",
      "outputs": [],
      "stateMutability": "nonpayable",
      "type": "function"
    },
    {
      "inputs": [
        {
          "internalType": "bool",
          "name": "publicSwap",
          "type": "bool"
        }
      ],
      "name": "setPublicSwap",
      "outputs": [],
      "stateMutability": "nonpayable",
      "type": "function"
    },
    {
      "inputs": [
        {
          "internalType": "uint256",
          "name": "initialSupply",
          "type": "uint256"
        }
      ],
      "name": "createPool",
      "outputs": [],
      "stateMutability": "nonpayable",
      "type": "function"
    },
    {
      "inputs": [
        {
          "internalType": "uint256",
          "name": "initialSupply",
          "type": "uint256"
        },
        {
          "internalType": "uint256",
          "name": "minimumWeightChangeBlockPeriodParam",
          "type": "uint256"
        },
        {
          "internalType": "uint256",
          "name": "addTokenTimeLockInBlocksParam",
          "type": "uint256"
        }
      ],
      "name": "createPool",
      "outputs": [],
      "stateMutability": "nonpayable",
      "type": "function"
    },
    {
      "inputs": [
        {
          "internalType": "address",
          "name": "token",
          "type": "address"
        },
        {
          "internalType": "uint256",
          "name": "newWeight",
          "type": "uint256"
        }
      ],
      "name": "updateWeight",
      "outputs": [],
      "stateMutability": "nonpayable",
      "type": "function"
    },
    {
      "inputs": [
        {
          "internalType": "uint256[]",
          "name": "newWeights",
          "type": "uint256[]"
        },
        {
          "internalType": "uint256",
          "name": "startBlock",
          "type": "uint256"
        },
        {
          "internalType": "uint256",
          "name": "endBlock",
          "type": "uint256"
        }
      ],
      "name": "updateWeightsGradually",
      "outputs": [],
      "stateMutability": "nonpayable",
      "type": "function"
    },
    {
      "inputs": [],
      "name": "pokeWeights",
      "outputs": [],
      "stateMutability": "nonpayable",
      "type": "function"
    },
    {
      "inputs": [
        {
          "internalType": "address",
          "name": "token",
          "type": "address"
        },
        {
          "internalType": "uint256",
          "name": "balance",
          "type": "uint256"
        },
        {
          "internalType": "uint256",
          "name": "denormalizedWeight",
          "type": "uint256"
        }
      ],
      "name": "commitAddToken",
      "outputs": [],
      "stateMutability": "nonpayable",
      "type": "function"
    },
    {
      "inputs": [],
      "name": "applyAddToken",
      "outputs": [],
      "stateMutability": "nonpayable",
      "type": "function"
    },
    {
      "inputs": [
        {
          "internalType": "address",
          "name": "token",
          "type": "address"
        }
      ],
      "name": "removeToken",
      "outputs": [],
      "stateMutability": "nonpayable",
      "type": "function"
    },
    {
      "inputs": [
        {
          "internalType": "uint256",
          "name": "poolAmountOut",
          "type": "uint256"
        },
        {
          "internalType": "uint256[]",
          "name": "maxAmountsIn",
          "type": "uint256[]"
        }
      ],
      "name": "joinPool",
      "outputs": [],
      "stateMutability": "nonpayable",
      "type": "function"
    },
    {
      "inputs": [
        {
          "internalType": "uint256",
          "name": "poolAmountIn",
          "type": "uint256"
        },
        {
          "internalType": "uint256[]",
          "name": "minAmountsOut",
          "type": "uint256[]"
        }
      ],
      "name": "exitPool",
      "outputs": [],
      "stateMutability": "nonpayable",
      "type": "function"
    },
    {
      "inputs": [
        {
          "internalType": "address",
          "name": "tokenIn",
          "type": "address"
        },
        {
          "internalType": "uint256",
          "name": "tokenAmountIn",
          "type": "uint256"
        },
        {
          "internalType": "uint256",
          "name": "minPoolAmountOut",
          "type": "uint256"
        }
      ],
      "name": "joinswapExternAmountIn",
      "outputs": [
        {
          "internalType": "uint256",
          "name": "poolAmountOut",
          "type": "uint256"
        }
      ],
      "stateMutability": "nonpayable",
      "type": "function"
    },
    {
      "inputs": [
        {
          "internalType": "address",
          "name": "tokenIn",
          "type": "address"
        },
        {
          "internalType": "uint256",
          "name": "poolAmountOut",
          "type": "uint256"
        },
        {
          "internalType": "uint256",
          "name": "maxAmountIn",
          "type": "uint256"
        }
      ],
      "name": "joinswapPoolAmountOut",
      "outputs": [
        {
          "internalType": "uint256",
          "name": "tokenAmountIn",
          "type": "uint256"
        }
      ],
      "stateMutability": "nonpayable",
      "type": "function"
    },
    {
      "inputs": [
        {
          "internalType": "address",
          "name": "tokenOut",
          "type": "address"
        },
        {
          "internalType": "uint256",
          "name": "poolAmountIn",
          "type": "uint256"
        },
        {
          "internalType": "uint256",
          "name": "minAmountOut",
          "type": "uint256"
        }
      ],
      "name": "exitswapPoolAmountIn",
      "outputs": [
        {
          "internalType": "uint256",
          "name": "tokenAmountOut",
          "type": "uint256"
        }
      ],
      "stateMutability": "nonpayable",
      "type": "function"
    },
    {
      "inputs": [
        {
          "internalType": "address",
          "name": "tokenOut",
          "type": "address"
        },
        {
          "internalType": "uint256",
          "name": "tokenAmountOut",
          "type": "uint256"
        },
        {
          "internalType": "uint256",
          "name": "maxPoolAmountIn",
          "type": "uint256"
        }
      ],
      "name": "exitswapExternAmountOut",
      "outputs": [
        {
          "internalType": "uint256",
          "name": "poolAmountIn",
          "type": "uint256"
        }
      ],
      "stateMutability": "nonpayable",
      "type": "function"
    },
    {
      "inputs": [
        {
          "internalType": "address",
          "name": "provider",
          "type": "address"
        }
      ],
      "name": "whitelistLiquidityProvider",
      "outputs": [],
      "stateMutability": "nonpayable",
      "type": "function"
    },
    {
      "inputs": [
        {
          "internalType": "address",
          "name": "provider",
          "type": "address"
        }
      ],
      "name": "removeWhitelistedLiquidityProvider",
      "outputs": [],
      "stateMutability": "nonpayable",
      "type": "function"
    },
    {
      "inputs": [
        {
          "internalType": "address",
          "name": "provider",
          "type": "address"
        }
      ],
      "name": "canProvideLiquidity",
      "outputs": [
        {
          "internalType": "bool",
          "name": "",
          "type": "bool"
        }
      ],
      "stateMutability": "view",
      "type": "function"
    },
    {
      "inputs": [
        {
          "internalType": "enum RightsManager.Permissions",
          "name": "permission",
          "type": "uint8"
        }
      ],
      "name": "hasPermission",
      "outputs": [
        {
          "internalType": "bool",
          "name": "",
          "type": "bool"
        }
      ],
      "stateMutability": "view",
      "type": "function"
    },
    {
      "inputs": [
        {
          "internalType": "address",
          "name": "token",
          "type": "address"
        }
      ],
      "name": "getDenormalizedWeight",
      "outputs": [
        {
          "internalType": "uint256",
          "name": "",
          "type": "uint256"
        }
      ],
      "stateMutability": "view",
      "type": "function"
    },
    {
      "inputs": [],
      "name": "getRightsManagerVersion",
      "outputs": [
        {
          "internalType": "address",
          "name": "",
          "type": "address"
        }
      ],
      "stateMutability": "pure",
      "type": "function"
    },
    {
      "inputs": [],
      "name": "getBalancerSafeMathVersion",
      "outputs": [
        {
          "internalType": "address",
          "name": "",
          "type": "address"
        }
      ],
      "stateMutability": "pure",
      "type": "function"
    },
    {
      "inputs": [],
      "name": "getSmartPoolManagerVersion",
      "outputs": [
        {
          "internalType": "address",
          "name": "",
          "type": "address"
        }
      ],
      "stateMutability": "pure",
      "type": "function"
    },
    {
      "inputs": [
        {
          "internalType": "uint256",
          "name": "amount",
          "type": "uint256"
        }
      ],
      "name": "mintPoolShareFromLib",
      "outputs": [],
      "stateMutability": "nonpayable",
      "type": "function"
    },
    {
      "inputs": [
        {
          "internalType": "address",
          "name": "to",
          "type": "address"
        },
        {
          "internalType": "uint256",
          "name": "amount",
          "type": "uint256"
        }
      ],
      "name": "pushPoolShareFromLib",
      "outputs": [],
      "stateMutability": "nonpayable",
      "type": "function"
    },
    {
      "inputs": [
        {
          "internalType": "address",
          "name": "from",
          "type": "address"
        },
        {
          "internalType": "uint256",
          "name": "amount",
          "type": "uint256"
        }
      ],
      "name": "pullPoolShareFromLib",
      "outputs": [],
      "stateMutability": "nonpayable",
      "type": "function"
    },
    {
      "inputs": [
        {
          "internalType": "uint256",
          "name": "amount",
          "type": "uint256"
        }
      ],
      "name": "burnPoolShareFromLib",
      "outputs": [],
      "stateMutability": "nonpayable",
      "type": "function"
    }
  ],
  "bytecode": "0x60806040523480156200001157600080fd5b506040516200532438038062005324833981016040819052620000349162000663565b8151602080840151825190916200005191600391850190620002c8565b50805162000067906004906020840190620002c8565b5050600580546001600160a01b03191633179055506001600655620f4240670de0b6b3a7640000048260a001511015620000be5760405162461bcd60e51b8152600401620000b5906200083c565b60405180910390fd5b60a082015167016345785d8a00001015620000ed5760405162461bcd60e51b8152600401620000b5906200083c565b81604001515182606001515114620001195760405162461bcd60e51b8152600401620000b590620007d9565b81604001515182608001515114620001455760405162461bcd60e51b8152600401620000b590620007a2565b600282604001515110156200016e5760405162461bcd60e51b8152600401620000b59062000810565b60088260400151511115620001975760405162461bcd60e51b8152600401620000b59062000873565b600780546001600160a01b0319166001600160a01b0385161790558051600980546020808501516040808701516060880151608089015160a08a015160ff199097169815159890981761ff001916610100941515949094029390931762ff0000191662010000911515919091021763ff00000019166301000000921515929092029190911760ff60201b1916640100000000951515959095029490941760ff60281b1916650100000000009215159290920291909117909155908301518051620002669260139201906200034d565b50606082015180516200028291601491602090910190620003b3565b5060a082015160125562015f906015556101f460165560808201518051620002b391600c91602090910190620003b3565b50506000600a555050600019601855620008f1565b828054600181600116156101000203166002900490600052602060002090601f016020900481019282601f106200030b57805160ff19168380011785556200033b565b828001600101855582156200033b579182015b828111156200033b5782518255916020019190600101906200031e565b5062000349929150620003f0565b5090565b828054828255906000526020600020908101928215620003a5579160200282015b82811115620003a557825182546001600160a01b0319166001600160a01b039091161782556020909201916001909101906200036e565b506200034992915062000407565b8280548282559060005260206000209081019282156200033b57916020028201828111156200033b5782518255916020019190600101906200031e565b5b80821115620003495760008155600101620003f1565b5b80821115620003495780546001600160a01b031916815560010162000408565b80516001600160a01b03811681146200044057600080fd5b92915050565b600082601f83011262000457578081fd5b81516200046e6200046882620008d1565b620008aa565b8181529150602080830190848101818402860182018710156200049057600080fd5b60005b84811015620004bb57620004a8888362000428565b8452928201929082019060010162000493565b505050505092915050565b600082601f830112620004d7578081fd5b8151620004e86200046882620008d1565b8181529150602080830190848101818402860182018710156200050a57600080fd5b60005b84811015620004bb578151845292820192908201906001016200050d565b805180151581146200044057600080fd5b600082601f8301126200054d578081fd5b81516001600160401b0381111562000563578182fd5b602062000579601f8301601f19168201620008aa565b925081835284818386010111156200059057600080fd5b60005b82811015620005b057848101820151848201830152810162000593565b82811115620005c25760008284860101525b50505092915050565b600060c08284031215620005dd578081fd5b620005e960c0620008aa565b9050620005f783836200052b565b81526200060883602084016200052b565b60208201526200061c83604084016200052b565b60408201526200063083606084016200052b565b60608201526200064483608084016200052b565b6080820152620006588360a084016200052b565b60a082015292915050565b6000806000610100848603121562000679578283fd5b62000685858562000428565b60208501519093506001600160401b0380821115620006a2578384fd5b9085019060c08288031215620006b6578384fd5b620006c260c0620008aa565b825182811115620006d1578586fd5b620006df898286016200053c565b825250602083015182811115620006f4578586fd5b62000702898286016200053c565b6020830152506040830151828111156200071a578586fd5b620007288982860162000446565b60408301525060608301518281111562000740578586fd5b6200074e89828601620004c6565b60608301525060808301518281111562000766578586fd5b6200077489828601620004c6565b60808301525060a083015160a0820152809450505050620007998560408601620005cb565b90509250925092565b6020808252601a908201527f4552525f53544152545f574549474854535f4d49534d41544348000000000000604082015260600190565b6020808252601b908201527f4552525f53544152545f42414c414e4345535f4d49534d415443480000000000604082015260600190565b6020808252601290820152714552525f544f4f5f4645575f544f4b454e5360701b604082015260600190565b60208082526014908201527f4552525f494e56414c49445f535741505f464545000000000000000000000000604082015260600190565b60208082526013908201527f4552525f544f4f5f4d414e595f544f4b454e5300000000000000000000000000604082015260600190565b6040518181016001600160401b0381118282101715620008c957600080fd5b604052919050565b60006001600160401b03821115620008e7578081fd5b5060209081020190565b614a2380620009016000396000f3fe608060405234801561001057600080fd5b50600436106103785760003560e01c806370a08231116101d3578063b02f0b7311610104578063dd62ed3e116100a2578063e7f1a5541161007c578063e7f1a554146106fa578063e854f53d14610702578063f226b5281461070a578063fde924f71461071257610378565b8063dd62ed3e146106cc578063e211b875146106df578063e2762d4b146106e757610378565b8063c3391d27116100de578063c3391d271461067a578063c42bd05a1461068d578063c83a1c2d146106a6578063d73dd623146106b957610378565b8063b02f0b7314610657578063b64ef17b1461066a578063c275d81b1461067257610378565b80639776e94b116101715780639d829c2b1161014b5780639d829c2b1461062c578063a3f4df7e14610634578063a835a0de1461063c578063a9059cbb1461064457610378565b80639776e94b146105f7578063980e8db61461060a5780639a82417e1461062457610378565b80638259e6a0116101ad5780638259e6a0146105b657806392eefe9b146105c9578063948d8ce6146105dc57806395d89b41146105ef57610378565b806370a082311461058857806374983a0d1461059b578063806c6f87146105a357610378565b806337c6f4d9116102ad5780634f69c0d41161024b5780635db34277116102255780635db342771461053c5780635fa7b5841461054f57806366188463146105625780636d06dfa01461057557610378565b80634f69c0d41461050057806355c32a23146105135780635a8342d81461052657610378565b806347786d371161028757806347786d37146104b457806349b59552146104c75780634ba57882146104da5780634c20d209146104ed57610378565b806337c6f4d91461048657806338cc48311461049957806346ab38f1146104a157610378565b8063220eb7601161031a5780632e0f2625116102f45780632e0f26251461044e5780633018205f14610463578063313ce5671461046b57806334e199071461047357610378565b8063220eb7601461041557806323b872dd14610428578063246bc19b1461043b57610378565b8063095ea7b311610356578063095ea7b3146103d05780630a165940146103f05780630ce279251461040557806318160ddd1461040d57610378565b806302c967481461037d57806306fdde03146103a6578063095dcccc146103bb575b600080fd5b61039061038b366004613ddf565b61071a565b60405161039d919061493e565b60405180910390f35b6103ae6108e1565b60405161039d919061438c565b6103ce6103c9366004613db4565b610977565b005b6103e36103de366004613db4565b6109a4565b60405161039d91906141c1565b6103f86109fc565b60405161039d9190614107565b610390610a0b565b610390610a11565b6103ce610423366004613fa9565b610a17565b6103e3610436366004613d74565b610a42565b6103ce610449366004613eac565b610b70565b610456610d04565b60405161039d9190614955565b6103f8610d09565b610456610d18565b6103ce610481366004613fa9565b610d1d565b6103e3610494366004613f8a565b610e62565b6103f8610ef7565b6103906104af366004613ddf565b610efb565b6103ce6104c2366004613fa9565b6110a9565b6103ce6104d5366004613f36565b6111d7565b6103ce6104e8366004613fa9565b6112dd565b6103ce6104fb366004613ddf565b611305565b6103ce61050e366004613fd9565b611526565b6103ce610521366004613db4565b611918565b61052e611941565b60405161039d929190614947565b61039061054a366004613ddf565b61194a565b6103ce61055d366004613d20565b611b0f565b6103e3610570366004613db4565b611caa565b610390610583366004613ddf565b611d84565b610390610596366004613d20565b611f49565b6103f8611f64565b6103e36105b1366004613d20565b611f7c565b6103ce6105c4366004613fa9565b611fc5565b6103ce6105d7366004613d20565b612062565b6103906105ea366004613d20565b61210e565b6103ae6121db565b6103ce610605366004613db4565b61223c565b6106126123bb565b60405161039d969594939291906141cc565b6103f86123f6565b6103f861240e565b6103ae612426565b610390612455565b6103e3610652366004613db4565b61245b565b6103ce610665366004613fd9565b612497565b6103f861282b565b6103ce61283a565b6103ce610688366004614094565b612999565b610695612a62565b60405161039d959493929190614159565b6103ce6106b4366004613d20565b612a89565b6103e36106c7366004613db4565b612b7c565b6103906106da366004613d3c565b612bf0565b6103ce612c1b565b6103ce6106f5366004613d20565b612d12565b610390612e39565b610390612e3f565b610390612e45565b6103e3612e4c565b60405160009033906001600160e01b03198335169061073c90849036906141fc565b60405180910390a2600260065414156107705760405162461bcd60e51b815260040161076790614618565b60405180910390fd5b60026006556008546001600160a01b031661079d5760405162461bcd60e51b81526004016107679061459a565b60085460405163724a2d5360e01b8152600091829173__SmartPoolManager______________________9163724a2d53916107ee9130916001600160a01b03909116908b908b908b906004016142f0565b604080518083038186803b15801561080557600080fd5b505af4158015610819573d6000803e3d6000fd5b505050506040513d601f19601f8201168201806040525081019061083d9190614023565b9150915080925060006108508484612f24565b9050866001600160a01b0316336001600160a01b03167fc62fc35ac75e3bff532648e2859a3e1694002cfa357614ae8e034df7f83db5e988604051610895919061493e565b60405180910390a36108a73385611937565b6108b081610a36565b6007546108c6906001600160a01b031684610996565b6108d1873388612f5d565b5050505b60016006559392505050565b60048054604080516020601f600260001961010060018816150201909516949094049384018190048102820181019092528281526060939092909183018282801561096d5780601f106109425761010080835404028352916020019161096d565b820191906000526020600020905b81548152906001019060200180831161095057829003601f168201915b5050505050905090565b3330146109965760405162461bcd60e51b8152600401610767906143df565b6109a082826131a6565b5050565b3360008181526002602090815260408083206001600160a01b038716808552925280832085905551919290916000805160206149ce833981519152906109eb90869061493e565b60405180910390a350600192915050565b6007546001600160a01b031681565b60185481565b60005490565b333014610a365760405162461bcd60e51b8152600401610767906143df565b610a3f816131b1565b50565b60006001600160a01b038316610a6a5760405162461bcd60e51b8152600401610767906144d2565b336001600160a01b0385161480610aa457506001600160a01b03841660009081526002602090815260408083203384529091529020548211155b610ac05760405162461bcd60e51b815260040161076790614720565b610acb84848461322b565b6001600160a01b0384166000818152600260209081526040808320338085529252909120549114801590610b0157506000198114155b15610b6357610b108184612f24565b6001600160a01b0386811660009081526002602090815260408083203380855292529182902084905590519187169290916000805160206149ce83398151915291610b5a9161493e565b60405180910390a35b60019150505b9392505050565b336001600160a01b03166000356001600160e01b0319166001600160e01b031916600036604051610ba29291906141fc565b60405180910390a260026006541415610bcd5760405162461bcd60e51b815260040161076790614618565b60026006556005546001600160a01b03163314610bfc5760405162461bcd60e51b8152600401610767906143df565b6008546001600160a01b0316610c245760405162461bcd60e51b81526004016107679061459a565b60095462010000900460ff16610c4c5760405162461bcd60e51b815260040161076790614533565b600e54600160a01b900460ff1615610c765760405162461bcd60e51b815260040161076790614750565b6008546015546040516304ee2fc960e21b815273__SmartPoolManager______________________926313b8bf2492610cc9926001600160a01b0390921691600a918a918a918a918a919060040161425c565b60006040518083038186803b158015610ce157600080fd5b505af4158015610cf5573d6000803e3d6000fd5b50506001600655505050505050565b601281565b6005546001600160a01b031690565b601290565b336001600160a01b03166000356001600160e01b0319166001600160e01b031916600036604051610d4f9291906141fc565b60405180910390a260026006541415610d7a5760405162461bcd60e51b815260040161076790614618565b60026006556005546001600160a01b03163314610da95760405162461bcd60e51b8152600401610767906143df565b6008546001600160a01b0316610dd15760405162461bcd60e51b81526004016107679061459a565b600954610100900460ff16610df85760405162461bcd60e51b815260040161076790614863565b6008546040516334e1990760e01b81526001600160a01b03909116906334e1990790610e2890849060040161493e565b600060405180830381600087803b158015610e4257600080fd5b505af1158015610e56573d6000803e3d6000fd5b50506001600655505050565b6040516322c1aa2560e11b815260009073__RightsManager_________________________90634583544a90610e9f9060099086906004016148d1565b60206040518083038186803b158015610eb757600080fd5b505af4158015610ecb573d6000803e3d6000fd5b505050506040513d601f19601f82011682018060405250810190610eef9190613f52565b90505b919050565b3090565b60405160009033906001600160e01b031983351690610f1d90849036906141fc565b60405180910390a260026006541415610f485760405162461bcd60e51b815260040161076790614618565b60026006556008546001600160a01b0316610f755760405162461bcd60e51b81526004016107679061459a565b600854604051636a82d4a760e11b8152600091829173__SmartPoolManager______________________9163d505a94e91610fc69130916001600160a01b03909116908b908b908b906004016142f0565b604080518083038186803b158015610fdd57600080fd5b505af4158015610ff1573d6000803e3d6000fd5b505050506040513d601f19601f820116820180604052508101906110159190614023565b9150915080925060006110288684612f24565b9050866001600160a01b0316336001600160a01b03167fc62fc35ac75e3bff532648e2859a3e1694002cfa357614ae8e034df7f83db5e98660405161106d919061493e565b60405180910390a361107f3387611937565b61108881610a36565b60075461109e906001600160a01b031684610996565b6108d1873386612f5d565b336001600160a01b03166000356001600160e01b0319166001600160e01b0319166000366040516110db9291906141fc565b60405180910390a2600260065414156111065760405162461bcd60e51b815260040161076790614618565b60026006556008546001600160a01b03166111335760405162461bcd60e51b81526004016107679061459a565b6005546001600160a01b0316331461115d5760405162461bcd60e51b8152600401610767906143df565b60095465010000000000900460ff166111885760405162461bcd60e51b815260040161076790614694565b336001600160a01b03167f6bc200110c7794738d401810b22ef824a2044a8ccb022d4ad8769840370331f5601854836040516111c5929190614947565b60405180910390a26018556001600655565b336001600160a01b03166000356001600160e01b0319166001600160e01b0319166000366040516112099291906141fc565b60405180910390a2600260065414156112345760405162461bcd60e51b815260040161076790614618565b60026006556005546001600160a01b031633146112635760405162461bcd60e51b8152600401610767906143df565b6008546001600160a01b031661128b5760405162461bcd60e51b81526004016107679061459a565b60095460ff166112ad5760405162461bcd60e51b8152600401610767906147df565b6008546040516324dacaa960e11b81526001600160a01b03909116906349b5955290610e289084906004016141c1565b3330146112fc5760405162461bcd60e51b8152600401610767906143df565b610a3f816132dc565b336001600160a01b03166000356001600160e01b0319166001600160e01b0319166000366040516113379291906141fc565b60405180910390a2600260065414156113625760405162461bcd60e51b815260040161076790614618565b60026006556005546001600160a01b031633146113915760405162461bcd60e51b8152600401610767906143df565b6008546001600160a01b03166113b95760405162461bcd60e51b81526004016107679061459a565b6009546301000000900460ff166113e25760405162461bcd60e51b81526004016107679061440b565b600a54156114025760405162461bcd60e51b81526004016107679061489a565b604051630e0d789b60e11b815273__SmartPoolManager______________________90631c1af13690611439908690600401614107565b60006040518083038186803b15801561145157600080fd5b505af4158015611465573d6000803e3d6000fd5b50506040513392503091506001600160a01b038616907f33b043686b9408a355896fe90b2f8ecc86a41d87d1554ef65a739948b4f23e2790600090a460085460405163b489ec1960e01b815273__SmartPoolManager______________________9163b489ec19916114ec916001600160a01b031690879087908790600e9060040161422b565b60006040518083038186803b15801561150457600080fd5b505af4158015611518573d6000803e3d6000fd5b505060016006555050505050565b336001600160a01b03166000356001600160e01b0319166001600160e01b0319166000366040516115589291906141fc565b60405180910390a2600260065414156115835760405162461bcd60e51b815260040161076790614618565b60026006556008546001600160a01b03166115b05760405162461bcd60e51b81526004016107679061459a565b6008546040805163fde924f760e01b815290516000926001600160a01b03169163fde924f7916004808301926020929190829003018186803b1580156115f557600080fd5b505afa158015611609573d6000803e3d6000fd5b505050506040513d601f19601f8201168201806040525081019061162d9190613f52565b6008546040516324dacaa960e11b81529192506001600160a01b0316906349b595529061165f906000906004016141c1565b600060405180830381600087803b15801561167957600080fd5b505af115801561168d573d6000803e3d6000fd5b5050600954600160201b900460ff161591508190506116bb57503360009081526017602052604090205460ff165b6116d75760405162461bcd60e51b815260040161076790614477565b60085460405163a1925f1d60e01b815260609173__SmartPoolManager______________________9163a1925f1d916117249130916001600160a01b0316908a908a908a90600401614324565b60006040518083038186803b15801561173c57600080fd5b505af4158015611750573d6000803e3d6000fd5b505050506040513d6000823e601f3d908101601f191682016040526117789190810190613efb565b90506060600860009054906101000a90046001600160a01b03166001600160a01b031663cc77828d6040518163ffffffff1660e01b815260040160006040518083038186803b1580156117ca57600080fd5b505afa1580156117de573d6000803e3d6000fd5b505050506040513d6000823e601f3d908101601f191682016040526118069190810190613e13565b905060005b81518110156118a457600082828151811061182257fe5b60200260200101519050600084838151811061183a57fe5b60200260200101519050816001600160a01b0316336001600160a01b03167fea39e3b35c5cd8937999ed5f7fbab30acd562a931fc4a887fed2a47c3074aa7283604051611887919061493e565b60405180910390a361189a823383613309565b505060010161180b565b506118ae866112fc565b6118b83387610996565b50506008546040516324dacaa960e11b81526001600160a01b03909116906349b59552906118ea9084906004016141c1565b600060405180830381600087803b15801561190457600080fd5b505af1158015610cf5573d6000803e3d6000fd5b3330146119375760405162461bcd60e51b8152600401610767906143df565b6109a08282613552565b600a54600b5482565b60405160009033906001600160e01b03198335169061196c90849036906141fc565b60405180910390a2600260065414156119975760405162461bcd60e51b815260040161076790614618565b60026006556008546001600160a01b03166119c45760405162461bcd60e51b81526004016107679061459a565b600954600160201b900460ff1615806119ec57503360009081526017602052604090205460ff165b611a085760405162461bcd60e51b815260040161076790614477565b60085460405163df90de0b60e01b815273__SmartPoolManager______________________9163df90de0b91611a549130916001600160a01b03909116908990899089906004016142f0565b60206040518083038186803b158015611a6c57600080fd5b505af4158015611a80573d6000803e3d6000fd5b505050506040513d601f19601f82011682018060405250810190611aa49190613fc1565b9050836001600160a01b0316336001600160a01b03167fea39e3b35c5cd8937999ed5f7fbab30acd562a931fc4a887fed2a47c3074aa7285604051611ae9919061493e565b60405180910390a3611afa816112fc565b611b043382610996565b6108d5843385613309565b336001600160a01b03166000356001600160e01b0319166001600160e01b031916600036604051611b419291906141fc565b60405180910390a260026006541415611b6c5760405162461bcd60e51b815260040161076790614618565b60026006556005546001600160a01b03163314611b9b5760405162461bcd60e51b8152600401610767906143df565b6008546001600160a01b0316611bc35760405162461bcd60e51b81526004016107679061459a565b6009546301000000900460ff16611bec5760405162461bcd60e51b81526004016107679061440b565b600e54600160a01b900460ff1615611c165760405162461bcd60e51b81526004016107679061477f565b600a5415611c365760405162461bcd60e51b81526004016107679061489a565b600854604051630970e47f60e01b815273__SmartPoolManager______________________91630970e47f91611c7e9130916001600160a01b039091169086906004016142a3565b60006040518083038186803b158015611c9657600080fd5b505af4158015610e56573d6000803e3d6000fd5b3360009081526002602090815260408083206001600160a01b0386168452909152812054808310611cfe573360009081526002602090815260408083206001600160a01b0388168452909152812055611d2d565b611d088184612f24565b3360009081526002602090815260408083206001600160a01b03891684529091529020555b3360008181526002602090815260408083206001600160a01b0389168085529252918290205491519092916000805160206149ce83398151915291611d72919061493e565b60405180910390a35060019392505050565b60405160009033906001600160e01b031983351690611da690849036906141fc565b60405180910390a260026006541415611dd15760405162461bcd60e51b815260040161076790614618565b60026006556008546001600160a01b0316611dfe5760405162461bcd60e51b81526004016107679061459a565b600954600160201b900460ff161580611e2657503360009081526017602052604090205460ff165b611e425760405162461bcd60e51b815260040161076790614477565b600854604051636a6dc6e760e01b815273__SmartPoolManager______________________91636a6dc6e791611e8e9130916001600160a01b03909116908990899089906004016142f0565b60206040518083038186803b158015611ea657600080fd5b505af4158015611eba573d6000803e3d6000fd5b505050506040513d601f19601f82011682018060405250810190611ede9190613fc1565b9050836001600160a01b0316336001600160a01b03167fea39e3b35c5cd8937999ed5f7fbab30acd562a931fc4a887fed2a47c3074aa7283604051611f23919061493e565b60405180910390a3611f34836112fc565b611f3e3384610996565b6108d5843383613309565b6001600160a01b031660009081526001602052604090205490565b73__RightsManager_________________________90565b600954600090600160201b900460ff1615611fb357506001600160a01b03811660009081526017602052604090205460ff16610ef2565b506001600160a01b0381161515610ef2565b6005546001600160a01b03163314611fef5760405162461bcd60e51b8152600401610767906143df565b336001600160a01b03166000356001600160e01b0319166001600160e01b0319166000366040516120219291906141fc565b60405180910390a26002600654141561204c5760405162461bcd60e51b815260040161076790614618565b600260065561205a8161355d565b506001600655565b6005546001600160a01b0316331461208c5760405162461bcd60e51b8152600401610767906143df565b6001600160a01b0381166120b25760405162461bcd60e51b8152600401610767906144d2565b6005546040516001600160a01b038084169216907f8be0079c531659141344cd1fd0a4f28419497f9722a3daafe3b4186f6b6457e090600090a3600580546001600160a01b0319166001600160a01b0392909216919091179055565b6000600260065414156121335760405162461bcd60e51b81526004016107679061463d565b6008546001600160a01b031661215b5760405162461bcd60e51b81526004016107679061459a565b600854604051634a46c67360e11b81526001600160a01b039091169063948d8ce69061218b908590600401614107565b60206040518083038186803b1580156121a357600080fd5b505afa1580156121b7573d6000803e3d6000fd5b505050506040513d601f19601f82011682018060405250810190610eef9190613fc1565b60038054604080516020601f600260001961010060018816150201909516949094049384018190048102820181019092528281526060939092909183018282801561096d5780601f106109425761010080835404028352916020019161096d565b336001600160a01b03166000356001600160e01b0319166001600160e01b03191660003660405161226e9291906141fc565b60405180910390a2600260065414156122995760405162461bcd60e51b815260040161076790614618565b60026006556005546001600160a01b031633146122c85760405162461bcd60e51b8152600401610767906143df565b6008546001600160a01b03166122f05760405162461bcd60e51b81526004016107679061459a565b60095462010000900460ff166123185760405162461bcd60e51b815260040161076790614533565b600a54156123385760405162461bcd60e51b81526004016107679061489a565b600854604051633d512a8760e21b815273__SmartPoolManager______________________9163f544aa1c916123829130916001600160a01b0390911690879087906004016142c6565b60006040518083038186803b15801561239a57600080fd5b505af41580156123ae573d6000803e3d6000fd5b5050600160065550505050565b60095460ff80821691610100810482169162010000820481169163010000008104821691600160201b82048116916501000000000090041686565b73__BalancerSafeMath______________________90565b73__SmartPoolManager______________________90565b6040518060400160405280601381526020017210985b185b98d95c8814db585c9d08141bdbdb606a1b81525081565b6101f481565b60006001600160a01b0383166124835760405162461bcd60e51b8152600401610767906144d2565b61248e33848461322b565b50600192915050565b336001600160a01b03166000356001600160e01b0319166001600160e01b0319166000366040516124c99291906141fc565b60405180910390a2600260065414156124f45760405162461bcd60e51b815260040161076790614618565b60026006556008546001600160a01b03166125215760405162461bcd60e51b81526004016107679061459a565b6008546040805163fde924f760e01b815290516000926001600160a01b03169163fde924f7916004808301926020929190829003018186803b15801561256657600080fd5b505afa15801561257a573d6000803e3d6000fd5b505050506040513d601f19601f8201168201806040525081019061259e9190613f52565b6008546040516324dacaa960e11b81529192506001600160a01b0316906349b59552906125d0906000906004016141c1565b600060405180830381600087803b1580156125ea57600080fd5b505af11580156125fe573d6000803e3d6000fd5b505060085460405163151c70f960e21b81526000935083925060609173__SmartPoolManager______________________91635471c3e4916126549130916001600160a01b0316908c908c908c90600401614324565b60006040518083038186803b15801561266c57600080fd5b505af4158015612680573d6000803e3d6000fd5b505050506040513d6000823e601f3d908101601f191682016040526126a89190810190614046565b9250925092506126b83388611937565b6007546126ce906001600160a01b031684610996565b6126d782610a36565b6008546040805163cc77828d60e01b815290516060926001600160a01b03169163cc77828d916004808301926000929190829003018186803b15801561271c57600080fd5b505afa158015612730573d6000803e3d6000fd5b505050506040513d6000823e601f3d908101601f191682016040526127589190810190613e13565b905060005b81518110156127f657600082828151811061277457fe5b60200260200101519050600084838151811061278c57fe5b60200260200101519050816001600160a01b0316336001600160a01b03167fc62fc35ac75e3bff532648e2859a3e1694002cfa357614ae8e034df7f83db5e9836040516127d9919061493e565b60405180910390a36127ec823383612f5d565b505060010161275d565b50506008546040516324dacaa960e11b81526001600160a01b0390911693506349b5955292506118ea915084906004016141c1565b6008546001600160a01b031681565b336001600160a01b03166000356001600160e01b0319166001600160e01b03191660003660405161286c9291906141fc565b60405180910390a2600260065414156128975760405162461bcd60e51b815260040161076790614618565b60026006556005546001600160a01b031633146128c65760405162461bcd60e51b8152600401610767906143df565b6008546001600160a01b03166128ee5760405162461bcd60e51b81526004016107679061459a565b6009546301000000900460ff166129175760405162461bcd60e51b81526004016107679061440b565b600854601654604051633be961dd60e21b815273__SmartPoolManager______________________9263efa58774926129629230926001600160a01b03169190600e90600401614363565b60006040518083038186803b15801561297a57600080fd5b505af415801561298e573d6000803e3d6000fd5b505060016006555050565b6005546001600160a01b031633146129c35760405162461bcd60e51b8152600401610767906143df565b336001600160a01b03166000356001600160e01b0319166001600160e01b0319166000366040516129f59291906141fc565b60405180910390a260026006541415612a205760405162461bcd60e51b815260040161076790614618565b600260065580821015612a455760405162461bcd60e51b815260040161076790614442565b60158290556016819055612a588361355d565b5050600160065550565b600e54600f546010546011546001600160a01b03841693600160a01b900460ff1692919085565b6005546001600160a01b03163314612ab35760405162461bcd60e51b8152600401610767906143df565b60026006541415612ad65760405162461bcd60e51b815260040161076790614618565b60026006556040513390600080356001600160e01b03191691612afb919036906141fc565b60405180910390a2600954600160201b900460ff16612b2c5760405162461bcd60e51b8152600401610767906144fc565b6001600160a01b038116612b525760405162461bcd60e51b815260040161076790614667565b6001600160a01b03166000908152601760205260409020805460ff19166001908117909155600655565b3360009081526002602090815260408083206001600160a01b0386168452909152812054612baa9083613a09565b3360008181526002602090815260408083206001600160a01b038916808552925291829020849055905190926000805160206149ce833981519152916109eb919061493e565b6001600160a01b03918216600090815260026020908152604080832093909416825291909152205490565b336001600160a01b03166000356001600160e01b0319166001600160e01b031916600036604051612c4d9291906141fc565b60405180910390a260026006541415612c785760405162461bcd60e51b815260040161076790614618565b60026006556008546001600160a01b0316612ca55760405162461bcd60e51b81526004016107679061459a565b60095462010000900460ff16612ccd5760405162461bcd60e51b815260040161076790614533565b6008546040516382495b4560e01b815273__SmartPoolManager______________________916382495b4591612962916001600160a01b031690600a90600401614187565b6005546001600160a01b03163314612d3c5760405162461bcd60e51b8152600401610767906143df565b60026006541415612d5f5760405162461bcd60e51b815260040161076790614618565b60026006556040513390600080356001600160e01b03191691612d84919036906141fc565b60405180910390a2600954600160201b900460ff16612db55760405162461bcd60e51b8152600401610767906144fc565b6001600160a01b03811660009081526017602052604090205460ff16612ded5760405162461bcd60e51b81526004016107679061456a565b6001600160a01b038116612e135760405162461bcd60e51b815260040161076790614667565b6001600160a01b03166000908152601760205260409020805460ff191690556001600655565b60165481565b60155481565b62015f9081565b600060026006541415612e715760405162461bcd60e51b81526004016107679061463d565b6008546001600160a01b0316612e995760405162461bcd60e51b81526004016107679061459a565b600860009054906101000a90046001600160a01b03166001600160a01b031663fde924f76040518163ffffffff1660e01b815260040160206040518083038186803b158015612ee757600080fd5b505afa158015612efb573d6000803e3d6000fd5b505050506040513d601f19601f82011682018060405250810190612f1f9190613f52565b905090565b6000806000612f338585613a2e565b915091508015612f555760405162461bcd60e51b81526004016107679061480e565b509392505050565b6008546001600160a01b0316612f855760405162461bcd60e51b81526004016107679061459a565b60085460405163f8b2cb4f60e01b81526000916001600160a01b03169063f8b2cb4f90612fb6908790600401614107565b60206040518083038186803b158015612fce57600080fd5b505afa158015612fe2573d6000803e3d6000fd5b505050506040513d601f19601f820116820180604052508101906130069190613fc1565b600854604051634a46c67360e11b81529192506000916001600160a01b039091169063948d8ce69061303c908890600401614107565b60206040518083038186803b15801561305457600080fd5b505afa158015613068573d6000803e3d6000fd5b505050506040513d601f19601f8201168201806040525081019061308c9190613fc1565b6008549091506001600160a01b0316633fdddaa2866130ab8587612f24565b846040518463ffffffff1660e01b81526004016130ca939291906141a0565b600060405180830381600087803b1580156130e457600080fd5b505af11580156130f8573d6000803e3d6000fd5b505060405163a9059cbb60e01b8152600092506001600160a01b038816915063a9059cbb9061312d9088908890600401614187565b602060405180830381600087803b15801561314757600080fd5b505af115801561315b573d6000803e3d6000fd5b505050506040513d601f19601f8201168201806040525081019061317f9190613f52565b90508061319e5760405162461bcd60e51b8152600401610767906147b6565b505050505050565b6109a030838361322b565b306000908152600160205260409020546131cb9082612f24565b30600090815260016020526040812091909155546131e99082612f24565b600090815560405130907fddf252ad1be2c89b69c2b068fc378daa952ba7f163c4a11628f55a4df523b3ef9061322090859061493e565b60405180910390a350565b6001600160a01b03831660009081526001602052604090205461324e9082612f24565b6001600160a01b03808516600090815260016020526040808220939093559084168152205461327d9082613a09565b6001600160a01b0380841660008181526001602052604090819020939093559151908516907fddf252ad1be2c89b69c2b068fc378daa952ba7f163c4a11628f55a4df523b3ef906132cf90859061493e565b60405180910390a3505050565b6132e581613a53565b6018546000541115610a3f5760405162461bcd60e51b8152600401610767906146f1565b6008546001600160a01b03166133315760405162461bcd60e51b81526004016107679061459a565b60085460405163f8b2cb4f60e01b81526000916001600160a01b03169063f8b2cb4f90613362908790600401614107565b60206040518083038186803b15801561337a57600080fd5b505afa15801561338e573d6000803e3d6000fd5b505050506040513d601f19601f820116820180604052508101906133b29190613fc1565b600854604051634a46c67360e11b81529192506000916001600160a01b039091169063948d8ce6906133e8908890600401614107565b60206040518083038186803b15801561340057600080fd5b505afa158015613414573d6000803e3d6000fd5b505050506040513d601f19601f820116820180604052508101906134389190613fc1565b90506000856001600160a01b03166323b872dd8630876040518463ffffffff1660e01b815260040161346c9392919061411b565b602060405180830381600087803b15801561348657600080fd5b505af115801561349a573d6000803e3d6000fd5b505050506040513d601f19601f820116820180604052508101906134be9190613f52565b9050806134dd5760405162461bcd60e51b8152600401610767906147b6565b6008546001600160a01b0316633fdddaa2876134f98688613a09565b856040518463ffffffff1660e01b8152600401613518939291906141a0565b600060405180830381600087803b15801561353257600080fd5b505af1158015613546573d6000803e3d6000fd5b50505050505050505050565b6109a082308361322b565b6008546001600160a01b0316156135865760405162461bcd60e51b8152600401610767906145c3565b68056bc75e2d631000008110156135af5760405162461bcd60e51b8152600401610767906145eb565b6b033b2e3c9fd0803ce80000008111156135db5760405162461bcd60e51b8152600401610767906144a5565b60095465010000000000900460ff16156135f55760188190555b6135fe816112fc565b6136083382610996565b600760009054906101000a90046001600160a01b03166001600160a01b031663d556c5dc6040518163ffffffff1660e01b8152600401602060405180830381600087803b15801561365857600080fd5b505af115801561366c573d6000803e3d6000fd5b505050506040513d601f19601f820116820180604052508101906136909190613f6e565b600880546001600160a01b0319166001600160a01b0392831617908190556040805163632c068960e11b81529051919092169163c6580d12916004808301926020929190829003018186803b1580156136e857600080fd5b505afa1580156136fc573d6000803e3d6000fd5b505050506040513d601f19601f820116820180604052508101906137209190613fc1565b1561373d5760405162461bcd60e51b8152600401610767906146c3565b60005b6013548110156138ff5760006013828154811061375957fe5b6000918252602082200154601480546001600160a01b039092169350908490811061378057fe5b906000526020600020015490506000600a600201848154811061379f57fe5b60009182526020822001546040516323b872dd60e01b81529092506001600160a01b038516906323b872dd906137dd9033903090889060040161411b565b602060405180830381600087803b1580156137f757600080fd5b505af115801561380b573d6000803e3d6000fd5b505050506040513d601f19601f8201168201806040525081019061382f9190613f52565b90508061384e5760405162461bcd60e51b8152600401610767906147b6565b60085461386a906001600160a01b038681169116600019613ac3565b9050806138895760405162461bcd60e51b8152600401610767906147b6565b600854604051631c9c3ca760e31b81526001600160a01b039091169063e4e1e538906138bd908790879087906004016141a0565b600060405180830381600087803b1580156138d757600080fd5b505af11580156138eb573d6000803e3d6000fd5b505060019096019550613740945050505050565b505b6013541561393b57601380548061391457fe5b600082815260209020810160001990810180546001600160a01b0319169055019055613901565b6008546012546040516334e1990760e01b81526001600160a01b03909216916334e199079161396c9160040161493e565b600060405180830381600087803b15801561398657600080fd5b505af115801561399a573d6000803e3d6000fd5b50506008546040516324dacaa960e11b81526001600160a01b0390911692506349b5955291506139cf906001906004016141c1565b600060405180830381600087803b1580156139e957600080fd5b505af11580156139fd573d6000803e3d6000fd5b50506000601255505050565b600082820183811015610b695760405162461bcd60e51b815260040161076790614839565b600080838311613a445750508082036000613a4c565b505081810360015b9250929050565b30600090815260016020526040902054613a6d9082613a09565b3060009081526001602052604081209190915554613a8b9082613a09565b60009081556040513091907fddf252ad1be2c89b69c2b068fc378daa952ba7f163c4a11628f55a4df523b3ef9061322090859061493e565b600080846001600160a01b031663dd62ed3e30866040518363ffffffff1660e01b8152600401613af492919061413f565b60206040518083038186803b158015613b0c57600080fd5b505afa158015613b20573d6000803e3d6000fd5b505050506040513d601f19601f82011682018060405250810190613b449190613fc1565b905082811415613b58576001915050610b69565b8015613be75760405163095ea7b360e01b81526001600160a01b0386169063095ea7b390613b8d908790600090600401614187565b602060405180830381600087803b158015613ba757600080fd5b505af1158015613bbb573d6000803e3d6000fd5b505050506040513d601f19601f82011682018060405250810190613bdf9190613f52565b915050610b69565b60405163095ea7b360e01b81526001600160a01b0386169063095ea7b390613c159087908790600401614187565b602060405180830381600087803b158015613c2f57600080fd5b505af1158015613c43573d6000803e3d6000fd5b505050506040513d601f19601f82011682018060405250810190613c679190613f52565b95945050505050565b60008083601f840112613c81578081fd5b50813567ffffffffffffffff811115613c98578182fd5b6020830191508360208083028501011115613a4c57600080fd5b600082601f830112613cc2578081fd5b8151613cd5613cd08261498a565b614963565b818152915060208083019084810181840286018201871015613cf657600080fd5b60005b84811015613d1557815184529282019290820190600101613cf9565b505050505092915050565b600060208284031215613d31578081fd5b8135610b69816149aa565b60008060408385031215613d4e578081fd5b8235613d59816149aa565b91506020830135613d69816149aa565b809150509250929050565b600080600060608486031215613d88578081fd5b8335613d93816149aa565b92506020840135613da3816149aa565b929592945050506040919091013590565b60008060408385031215613dc6578182fd5b8235613dd1816149aa565b946020939093013593505050565b600080600060608486031215613df3578283fd5b8335613dfe816149aa565b95602085013595506040909401359392505050565b60006020808385031215613e25578182fd5b825167ffffffffffffffff811115613e3b578283fd5b8301601f81018513613e4b578283fd5b8051613e59613cd08261498a565b8181528381019083850185840285018601891015613e75578687fd5b8694505b83851015613ea0578051613e8c816149aa565b835260019490940193918501918501613e79565b50979650505050505050565b60008060008060608587031215613ec1578081fd5b843567ffffffffffffffff811115613ed7578182fd5b613ee387828801613c70565b90989097506020870135966040013595509350505050565b600060208284031215613f0c578081fd5b815167ffffffffffffffff811115613f22578182fd5b613f2e84828501613cb2565b949350505050565b600060208284031215613f47578081fd5b8135610b69816149bf565b600060208284031215613f63578081fd5b8151610b69816149bf565b600060208284031215613f7f578081fd5b8151610b69816149aa565b600060208284031215613f9b578081fd5b813560068110610b69578182fd5b600060208284031215613fba578081fd5b5035919050565b600060208284031215613fd2578081fd5b5051919050565b600080600060408486031215613fed578081fd5b83359250602084013567ffffffffffffffff81111561400a578182fd5b61401686828701613c70565b9497909650939450505050565b60008060408385031215614035578182fd5b505080516020909101519092909150565b60008060006060848603121561405a578081fd5b8351925060208401519150604084015167ffffffffffffffff81111561407e578182fd5b61408a86828701613cb2565b9150509250925092565b6000806000606084860312156140a8578081fd5b505081359360208301359350604090920135919050565b81835260006001600160fb1b038311156140d7578081fd5b6020830280836020870137939093016020019283525090919050565b15159052565b6006811061410357fe5b9052565b6001600160a01b0391909116815260200190565b6001600160a01b039384168152919092166020820152604081019190915260600190565b6001600160a01b0392831681529116602082015260400190565b6001600160a01b03959095168552921515602085015260408401919091526060830152608082015260a00190565b6001600160a01b03929092168252602082015260400190565b6001600160a01b039390931683526020830191909152604082015260600190565b901515815260200190565b9515158652931515602086015291151560408501521515606084015215156080830152151560a082015260c00190565b60006020825282602083015282846040840137818301604090810191909152601f909201601f19160101919050565b6001600160a01b03958616815293909416602084015260408301919091526060820152608081019190915260a00190565b600060018060a01b038916825287602083015260c0604083015261428460c0830187896140bf565b606083019590955250608081019290925260a090910152949350505050565b6001600160a01b0393841681529183166020830152909116604082015260600190565b6001600160a01b039485168152928416602084015292166040820152606081019190915260800190565b6001600160a01b03958616815293851660208501529190931660408301526060820192909252608081019190915260a00190565b6001600160a01b038681168252851660208201526040810184905260806060820181905260009061435890830184866140bf565b979650505050505050565b6001600160a01b0394851681529290931660208301526040820152606081019190915260800190565b6000602080835283518082850152825b818110156143b85785810183015185820160400152820161439c565b818111156143c95783604083870101525b50601f01601f1916929092016040019392505050565b60208082526012908201527122a9292fa727aa2fa1a7a72a2927a62622a960711b604082015260600190565b6020808252601c908201527f4552525f43414e4e4f545f4144445f52454d4f56455f544f4b454e5300000000604082015260600190565b6020808252818101527f4552525f494e434f4e53495354454e545f544f4b454e5f54494d455f4c4f434b604082015260600190565b60208082526014908201527311549497d393d517d3d397d5d2125511531254d560621b604082015260600190565b60208082526013908201527208aa4a4be929c92a8bea6aaa0a098b2be9a82b606b1b604082015260600190565b60208082526010908201526f4552525f5a45524f5f4144445245535360801b604082015260600190565b60208082526018908201527f4552525f43414e4e4f545f57484954454c4953545f4c50530000000000000000604082015260600190565b6020808252601c908201527f4552525f4e4f545f434f4e464947555241424c455f5745494748545300000000604082015260600190565b60208082526016908201527511549497d31417d393d517d5d2125511531254d5115160521b604082015260600190565b6020808252600f908201526e11549497d393d517d0d49150551151608a1b604082015260600190565b6020808252600e908201526d11549497d254d7d0d4915055115160921b604082015260600190565b60208082526013908201527222a9292fa4a724aa2fa9aaa828262cafa6a4a760691b604082015260600190565b6020808252600b908201526a4552525f5245454e54525960a81b604082015260600190565b60208082526010908201526f4552525f5245454e5452595f5649455760801b604082015260600190565b6020808252601390820152724552525f494e56414c49445f4144445245535360681b604082015260600190565b60208082526015908201527404552525f43414e4e4f545f4348414e47455f43415605c1b604082015260600190565b6020808252601490820152734552525f4e4f4e5a45524f5f455849545f46454560601b604082015260600190565b60208082526015908201527411549497d0d05417d31253525517d4915050d21151605a1b604082015260600190565b60208082526016908201527522a9292fa821aa27a5a2a72fa120a22fa1a0a62622a960511b604082015260600190565b60208082526015908201527411549497d4115391125391d7d513d2d15397d05111605a1b604082015260600190565b6020808252601b908201527f4552525f52454d4f56455f574954485f4144445f50454e44494e470000000000604082015260600190565b6020808252600f908201526e4552525f45524332305f46414c534560881b604082015260600190565b60208082526015908201527404552525f4e4f545f5041555341424c455f5357415605c1b604082015260600190565b6020808252601190820152704552525f5355425f554e444552464c4f5760781b604082015260600190565b60208082526010908201526f4552525f4144445f4f564552464c4f5760801b604082015260600190565b6020808252601d908201527f4552525f4e4f545f434f4e464947555241424c455f535741505f464545000000604082015260600190565b6020808252601c908201527f4552525f4e4f5f5550444154455f445552494e475f4752414455414c00000000604082015260600190565b600060e082019050835460ff80821615158452808260081c1615156020850152808260101c1615156040850152808260181c161515606085015261491d60808501828460201c166140f3565b61492f60a08501828460281c166140f3565b5050610b6960c08301846140f9565b90815260200190565b918252602082015260400190565b60ff91909116815260200190565b60405181810167ffffffffffffffff8111828210171561498257600080fd5b604052919050565b600067ffffffffffffffff8211156149a0578081fd5b5060209081020190565b6001600160a01b0381168114610a3f57600080fd5b8015158114610a3f57600080fdfe8c5be1e5ebec7d5bd14f71427d1e84f3dd0314c0f7b2291e5b200ac8c7c3b925a2646970667358221220446fa308c3f24fc12bdbb8947901cfd13c8970313860796586cac956b9b68f6664736f6c634300060c0033",
  "immutableReferences": {},
  "source": "// SPDX-License-Identifier: GPL-3.0-or-later\npragma solidity 0.6.12;\n\n// Needed to handle structures externally\npragma experimental ABIEncoderV2;\n\n// Imports\n\nimport \"../../interfaces/IBFactory.sol\";\nimport \"./PCToken.sol\";\nimport \"../utils/BalancerReentrancyGuard.sol\";\nimport \"../utils/BalancerOwnable.sol\";\n\n// Interfaces\n\n// Libraries\nimport { RightsManager } from \"../libraries/RightsManager.sol\";\nimport \"../libraries/SmartPoolManager.sol\";\nimport \"../libraries/SafeApprove.sol\";\n\n// Contracts\n\n/**\n * @author Balancer Labs\n * @title Smart Pool with customizable features\n * @notice PCToken is the \"Balancer Smart Pool\" token (transferred upon finalization)\n * @dev Rights are defined as follows (index values into the array)\n *      0: canPauseSwapping - can setPublicSwap back to false after turning it on\n *                            by default, it is off on initialization and can only be turned on\n *      1: canChangeSwapFee - can setSwapFee after initialization (by default, it is fixed at create time)\n *      2: canChangeWeights - can bind new token weights (allowed by default in base pool)\n *      3: canAddRemoveTokens - can bind/unbind tokens (allowed by default in base pool)\n *      4: canWhitelistLPs - can restrict LPs to a whitelist\n *      5: canChangeCap - can change the BSP cap (max # of pool tokens)\n *\n * Note that functions called on bPool and bFactory may look like internal calls,\n *   but since they are contracts accessed through an interface, they are really external.\n * To make this explicit, we could write \"IBPool(address(bPool)).function()\" everywhere,\n *   instead of \"bPool.function()\".\n */\ncontract ConfigurableRightsPool is PCToken, BalancerOwnable, BalancerReentrancyGuard {\n    using BalancerSafeMath for uint;\n    using SafeApprove for IERC20;\n\n    // Type declarations\n\n    struct PoolParams {\n        // Balancer Pool Token (representing shares of the pool)\n        string poolTokenSymbol;\n        string poolTokenName;\n        // Tokens inside the Pool\n        address[] constituentTokens;\n        uint[] tokenBalances;\n        uint[] tokenWeights;\n        uint swapFee;\n    }\n\n    // State variables\n\n    IBFactory public bFactory;\n    IBPool public bPool;\n\n    // Struct holding the rights configuration\n    RightsManager.Rights public rights;\n\n    // Hold the parameters used in updateWeightsGradually\n    SmartPoolManager.GradualUpdateParams public gradualUpdate;\n\n    // This is for adding a new (currently unbound) token to the pool\n    // It's a two-step process: commitAddToken(), then applyAddToken()\n    SmartPoolManager.NewTokenParams public newToken;\n\n    // Fee is initialized on creation, and can be changed if permission is set\n    // Only needed for temporary storage between construction and createPool\n    // Thereafter, the swap fee should always be read from the underlying pool\n    uint private _initialSwapFee;\n\n    // Store the list of tokens in the pool, and balances\n    // NOTE that the token list is *only* used to store the pool tokens between\n    //   construction and createPool - thereafter, use the underlying BPool's list\n    //   (avoids synchronization issues)\n    address[] private _initialTokens;\n    uint[] private _initialBalances;\n\n    // Enforce a minimum time between the start and end blocks\n    uint public minimumWeightChangeBlockPeriod;\n    // Enforce a mandatory wait time between updates\n    // This is also the wait time between committing and applying a new token\n    uint public addTokenTimeLockInBlocks;\n\n    // Whitelist of LPs (if configured)\n    mapping(address => bool) private _liquidityProviderWhitelist;\n\n    // Cap on the pool size (i.e., # of tokens minted when joining)\n    // Limits the risk of experimental pools; failsafe/backup for fixed-size pools\n    uint public bspCap;\n\n    // Event declarations\n\n    // Anonymous logger event - can only be filtered by contract address\n\n    event LogCall(\n        bytes4  indexed sig,\n        address indexed caller,\n        bytes data\n    ) anonymous;\n\n    event LogJoin(\n        address indexed caller,\n        address indexed tokenIn,\n        uint tokenAmountIn\n    );\n\n    event LogExit(\n        address indexed caller,\n        address indexed tokenOut,\n        uint tokenAmountOut\n    );\n\n    event CapChanged(\n        address indexed caller,\n        uint oldCap,\n        uint newCap\n    );\n    \n    event NewTokenCommitted(\n        address indexed token,\n        address indexed pool,\n        address indexed caller\n    );\n\n    // Modifiers\n\n    modifier logs() {\n        emit LogCall(msg.sig, msg.sender, msg.data);\n        _;\n    }\n\n    // Mark functions that require delegation to the underlying Pool\n    modifier needsBPool() {\n        require(address(bPool) != address(0), \"ERR_NOT_CREATED\");\n        _;\n    }\n\n    modifier lockUnderlyingPool() {\n        // Turn off swapping on the underlying pool during joins\n        // Otherwise tokens with callbacks would enable attacks involving simultaneous swaps and joins\n        bool origSwapState = bPool.isPublicSwap();\n        bPool.setPublicSwap(false);\n        _;\n        bPool.setPublicSwap(origSwapState);\n    }\n\n    // Default values for these variables (used only in updateWeightsGradually), set in the constructor\n    // Pools without permission to update weights cannot use them anyway, and should call\n    //   the default createPool() function.\n    // To override these defaults, pass them into the overloaded createPool()\n    // Period is in blocks; 500 blocks ~ 2 hours; 90,000 blocks ~ 2 weeks\n    uint public constant DEFAULT_MIN_WEIGHT_CHANGE_BLOCK_PERIOD = 90000;\n    uint public constant DEFAULT_ADD_TOKEN_TIME_LOCK_IN_BLOCKS = 500;\n\n    // Function declarations\n\n    /**\n     * @notice Construct a new Configurable Rights Pool (wrapper around BPool)\n     * @dev _initialTokens and _swapFee are only used for temporary storage between construction\n     *      and create pool, and should not be used thereafter! _initialTokens is destroyed in\n     *      createPool to prevent this, and _swapFee is kept in sync (defensively), but\n     *      should never be used except in this constructor and createPool()\n     * @param factoryAddress - the BPoolFactory used to create the underlying pool\n     * @param poolParams - struct containing pool parameters\n     * @param rightsStruct - Set of permissions we are assigning to this smart pool\n     */\n    constructor(\n        address factoryAddress,\n        PoolParams memory poolParams,\n        RightsManager.Rights memory rightsStruct\n    )\n        public\n        PCToken(poolParams.poolTokenSymbol, poolParams.poolTokenName)\n    {\n        // We don't have a pool yet; check now or it will fail later (in order of likelihood to fail)\n        // (and be unrecoverable if they don't have permission set to change it)\n        // Most likely to fail, so check first\n        require(poolParams.swapFee >= BalancerConstants.MIN_FEE, \"ERR_INVALID_SWAP_FEE\");\n        require(poolParams.swapFee <= BalancerConstants.MAX_FEE, \"ERR_INVALID_SWAP_FEE\");\n\n        // Arrays must be parallel\n        require(poolParams.tokenBalances.length == poolParams.constituentTokens.length, \"ERR_START_BALANCES_MISMATCH\");\n        require(poolParams.tokenWeights.length == poolParams.constituentTokens.length, \"ERR_START_WEIGHTS_MISMATCH\");\n        // Cannot have too many or too few - technically redundant, since BPool.bind() would fail later\n        // But if we don't check now, we could have a useless contract with no way to create a pool\n\n        require(poolParams.constituentTokens.length >= BalancerConstants.MIN_ASSET_LIMIT, \"ERR_TOO_FEW_TOKENS\");\n        require(poolParams.constituentTokens.length <= BalancerConstants.MAX_ASSET_LIMIT, \"ERR_TOO_MANY_TOKENS\");\n        // There are further possible checks (e.g., if they use the same token twice), but\n        // we can let bind() catch things like that (i.e., not things that might reasonably work)\n\n        // JORGE. Eliminado para que no afecte la whitelist del token\n        //SmartPoolManager.verifyTokenCompliance(poolParams.constituentTokens);\n\n        bFactory = IBFactory(factoryAddress);\n        rights = rightsStruct;\n        _initialTokens = poolParams.constituentTokens;\n        _initialBalances = poolParams.tokenBalances;\n        _initialSwapFee = poolParams.swapFee;\n\n        // These default block time parameters can be overridden in createPool\n        minimumWeightChangeBlockPeriod = DEFAULT_MIN_WEIGHT_CHANGE_BLOCK_PERIOD;\n        addTokenTimeLockInBlocks = DEFAULT_ADD_TOKEN_TIME_LOCK_IN_BLOCKS;\n        \n        gradualUpdate.startWeights = poolParams.tokenWeights;\n        // Initializing (unnecessarily) for documentation - 0 means no gradual weight change has been initiated\n        gradualUpdate.startBlock = 0;\n        // By default, there is no cap (unlimited pool token minting)\n        bspCap = BalancerConstants.MAX_UINT;\n    }\n\n    // External functions\n\n    function getAddress() external view returns(address) {\n        return address(this);\n    }\n\n\n    /**\n     * @notice Set the swap fee on the underlying pool\n     * @dev Keep the local version and core in sync (see below)\n     *      bPool is a contract interface; function calls on it are external\n     * @param swapFee in Wei\n     */\n    function setSwapFee(uint swapFee)\n        external\n        logs\n        lock\n        onlyOwner\n        needsBPool\n        virtual\n    {\n        require(rights.canChangeSwapFee, \"ERR_NOT_CONFIGURABLE_SWAP_FEE\");\n\n        // Underlying pool will check against min/max fee\n        bPool.setSwapFee(swapFee);\n    }\n\n    /**\n     * @notice Getter for the publicSwap field on the underlying pool\n     * @dev viewLock, because setPublicSwap is lock\n     *      bPool is a contract interface; function calls on it are external\n     * @return Current value of isPublicSwap\n     */\n    function isPublicSwap()\n        external\n        view\n        viewlock\n        needsBPool\n        virtual\n        returns (bool)\n    {\n        return bPool.isPublicSwap();\n    }\n\n    /**\n     * @notice Set the cap (max # of pool tokens)\n     * @dev _bspCap defaults in the constructor to unlimited\n     *      Can set to 0 (or anywhere below the current supply), to halt new investment\n     *      Prevent setting it before creating a pool, since createPool sets to intialSupply\n     *      (it does this to avoid an unlimited cap window between construction and createPool)\n     *      Therefore setting it before then has no effect, so should not be allowed\n     * @param newCap - new value of the cap\n     */\n    function setCap(uint newCap)\n        external\n        logs\n        lock\n        needsBPool\n        onlyOwner\n    {\n        require(rights.canChangeCap, \"ERR_CANNOT_CHANGE_CAP\");\n\n        emit CapChanged(msg.sender, bspCap, newCap);\n\n        bspCap = newCap;\n    }\n\n    /**\n     * @notice Set the public swap flag on the underlying pool\n     * @dev If this smart pool has canPauseSwapping enabled, we can turn publicSwap off if it's already on\n     *      Note that if they turn swapping off - but then finalize the pool - finalizing will turn the\n     *      swapping back on. They're not supposed to finalize the underlying pool... would defeat the\n     *      smart pool functions. (Only the owner can finalize the pool - which is this contract -\n     *      so there is no risk from outside.)\n     *\n     *      bPool is a contract interface; function calls on it are external\n     * @param publicSwap new value of the swap\n     */\n    function setPublicSwap(bool publicSwap)\n        external\n        logs\n        lock\n        onlyOwner\n        needsBPool\n        virtual\n    {\n        require(rights.canPauseSwapping, \"ERR_NOT_PAUSABLE_SWAP\");\n\n        bPool.setPublicSwap(publicSwap);\n    }\n\n    /**\n     * @notice Create a new Smart Pool - and set the block period time parameters\n     * @dev Initialize the swap fee to the value provided in the CRP constructor\n     *      Can be changed if the canChangeSwapFee permission is enabled\n     *      Time parameters will be fixed at these values\n     *\n     *      If this contract doesn't have canChangeWeights permission - or you want to use the default\n     *      values, the block time arguments are not needed, and you can just call the single-argument\n     *      createPool()\n     * @param initialSupply - Starting token balance\n     * @param minimumWeightChangeBlockPeriodParam - Enforce a minimum time between the start and end blocks\n     * @param addTokenTimeLockInBlocksParam - Enforce a mandatory wait time between updates\n     *                                   This is also the wait time between committing and applying a new token\n     */\n    function createPool(\n        uint initialSupply,\n        uint minimumWeightChangeBlockPeriodParam,\n        uint addTokenTimeLockInBlocksParam\n    )\n        external\n        onlyOwner\n        logs\n        lock\n        virtual\n    {\n        require (minimumWeightChangeBlockPeriodParam >= addTokenTimeLockInBlocksParam,\n                \"ERR_INCONSISTENT_TOKEN_TIME_LOCK\");\n \n        minimumWeightChangeBlockPeriod = minimumWeightChangeBlockPeriodParam;\n        addTokenTimeLockInBlocks = addTokenTimeLockInBlocksParam;\n\n        createPoolInternal(initialSupply);\n    }\n\n    /**\n     * @notice Create a new Smart Pool\n     * @dev Delegates to internal function\n     * @param initialSupply starting token balance\n     */\n    function createPool(uint initialSupply)\n        external\n        onlyOwner\n        logs\n        lock\n        virtual\n    {\n        createPoolInternal(initialSupply);\n    }\n\n    /**\n     * @notice Update the weight of an existing token\n     * @dev Notice Balance is not an input (like with rebind on BPool) since we will require prices not to change\n     *      This is achieved by forcing balances to change proportionally to weights, so that prices don't change\n     *      If prices could be changed, this would allow the controller to drain the pool by arbing price changes\n     * @param token - token to be reweighted\n     * @param newWeight - new weight of the token\n    */\n    function updateWeight(address token, uint newWeight)\n        external\n        logs\n        lock\n        onlyOwner\n        needsBPool\n        virtual\n    {\n        require(rights.canChangeWeights, \"ERR_NOT_CONFIGURABLE_WEIGHTS\");\n\n        // We don't want people to set weights manually if there's a block-based update in progress\n        require(gradualUpdate.startBlock == 0, \"ERR_NO_UPDATE_DURING_GRADUAL\");\n\n        // Delegate to library to save space\n        SmartPoolManager.updateWeight(IConfigurableRightsPool(address(this)), bPool, token, newWeight);\n    }\n\n    /**\n     * @notice Update weights in a predetermined way, between startBlock and endBlock,\n     *         through external calls to pokeWeights\n     * @dev Must call pokeWeights at least once past the end for it to do the final update\n     *      and enable calling this again.\n     *      It is possible to call updateWeightsGradually during an update in some use cases\n     *      For instance, setting newWeights to currentWeights to stop the update where it is\n     * @param newWeights - final weights we want to get to. Note that the ORDER (and number) of\n     *                     tokens can change if you have added or removed tokens from the pool\n     *                     It ensures the counts are correct, but can't help you with the order!\n     *                     You can get the underlying BPool (it's public), and call \n     *                     getCurrentTokens() to see the current ordering, if you're not sure\n     * @param startBlock - when weights should start to change\n     * @param endBlock - when weights will be at their final values\n    */\n    function updateWeightsGradually(\n        uint[] calldata newWeights,\n        uint startBlock,\n        uint endBlock\n    )\n        external\n        logs\n        lock\n        onlyOwner\n        needsBPool\n        virtual\n    {\n        require(rights.canChangeWeights, \"ERR_NOT_CONFIGURABLE_WEIGHTS\");\n         // Don't start this when we're in the middle of adding a new token\n        require(!newToken.isCommitted, \"ERR_PENDING_TOKEN_ADD\");\n        \n        // Library computes the startBlock, computes startWeights as the current\n        // denormalized weights of the core pool tokens.\n        SmartPoolManager.updateWeightsGradually(\n            bPool,\n            gradualUpdate,\n            newWeights,\n            startBlock,\n            endBlock,\n            minimumWeightChangeBlockPeriod\n        );\n    }\n\n    /**\n     * @notice External function called to make the contract update weights according to plan\n     * @dev Still works if we poke after the end of the period; also works if the weights don't change\n     *      Resets if we are poking beyond the end, so that we can do it again\n    */\n    function pokeWeights()\n        external\n        logs\n        lock\n        needsBPool\n        virtual\n    {\n        require(rights.canChangeWeights, \"ERR_NOT_CONFIGURABLE_WEIGHTS\");\n\n        // Delegate to library to save space\n        SmartPoolManager.pokeWeights(bPool, gradualUpdate);\n    }\n\n    /**\n     * @notice Schedule (commit) a token to be added; must call applyAddToken after a fixed\n     *         number of blocks to actually add the token\n     *\n     * @dev The purpose of this two-stage commit is to give warning of a potentially dangerous\n     *      operation. A malicious pool operator could add a large amount of a low-value token,\n     *      then drain the pool through price manipulation. Of course, there are many\n     *      legitimate purposes, such as adding additional collateral tokens.\n     *\n     * @param token - the token to be added\n     * @param balance - how much to be added\n     * @param denormalizedWeight - the desired token weight\n     */\n    function commitAddToken(\n        address token,\n        uint balance,\n        uint denormalizedWeight\n    )\n        external\n        logs\n        lock\n        onlyOwner\n        needsBPool\n        virtual\n    {\n        require(rights.canAddRemoveTokens, \"ERR_CANNOT_ADD_REMOVE_TOKENS\");\n\n        // Can't do this while a progressive update is happening\n        require(gradualUpdate.startBlock == 0, \"ERR_NO_UPDATE_DURING_GRADUAL\");\n\n        SmartPoolManager.verifyTokenCompliance(token);\n\n        emit NewTokenCommitted(token, address(this), msg.sender);\n\n        // Delegate to library to save space\n        SmartPoolManager.commitAddToken(\n            bPool,\n            token,\n            balance,\n            denormalizedWeight,\n            newToken\n        );\n    }\n\n    /**\n     * @notice Add the token previously committed (in commitAddToken) to the pool\n     */\n    function applyAddToken()\n        external\n        logs\n        lock\n        onlyOwner\n        needsBPool\n        virtual\n    {\n        require(rights.canAddRemoveTokens, \"ERR_CANNOT_ADD_REMOVE_TOKENS\");\n\n        // Delegate to library to save space\n        SmartPoolManager.applyAddToken(\n            IConfigurableRightsPool(address(this)),\n            bPool,\n            addTokenTimeLockInBlocks,\n            newToken\n        );\n    }\n\n     /**\n     * @notice Remove a token from the pool\n     * @dev bPool is a contract interface; function calls on it are external\n     * @param token - token to remove\n     */\n    function removeToken(address token)\n        external\n        logs\n        lock\n        onlyOwner\n        needsBPool\n    {\n        // It's possible to have remove rights without having add rights\n        require(rights.canAddRemoveTokens,\"ERR_CANNOT_ADD_REMOVE_TOKENS\");\n        // After createPool, token list is maintained in the underlying BPool\n        require(!newToken.isCommitted, \"ERR_REMOVE_WITH_ADD_PENDING\");\n        // Prevent removing during an update (or token lists can get out of sync)\n        require(gradualUpdate.startBlock == 0, \"ERR_NO_UPDATE_DURING_GRADUAL\");\n\n        // Delegate to library to save space\n        SmartPoolManager.removeToken(IConfigurableRightsPool(address(this)), bPool, token);\n    } \n\n    /**\n     * @notice Join a pool\n     * @dev Emits a LogJoin event (for each token)\n     *      bPool is a contract interface; function calls on it are external\n     * @param poolAmountOut - number of pool tokens to receive\n     * @param maxAmountsIn - Max amount of asset tokens to spend\n     */\n    function joinPool(uint poolAmountOut, uint[] calldata maxAmountsIn)\n        external\n        logs\n        lock\n        needsBPool\n        lockUnderlyingPool\n    {\n        require(!rights.canWhitelistLPs || _liquidityProviderWhitelist[msg.sender],\n                \"ERR_NOT_ON_WHITELIST\");\n\n        // Delegate to library to save space\n\n        // Library computes actualAmountsIn, and does many validations\n        // Cannot call the push/pull/min from an external library for\n        // any of these pool functions. Since msg.sender can be anybody,\n        // they must be internal\n        uint[] memory actualAmountsIn = SmartPoolManager.joinPool(\n                                            IConfigurableRightsPool(address(this)),\n                                            bPool,\n                                            poolAmountOut,\n                                            maxAmountsIn\n                                        );\n\n        // After createPool, token list is maintained in the underlying BPool\n        address[] memory poolTokens = bPool.getCurrentTokens();\n\n        for (uint i = 0; i < poolTokens.length; i++) {\n            address t = poolTokens[i];\n            uint tokenAmountIn = actualAmountsIn[i];\n\n            emit LogJoin(msg.sender, t, tokenAmountIn);\n\n            _pullUnderlying(t, msg.sender, tokenAmountIn);\n        }\n\n        _mintPoolShare(poolAmountOut);\n        _pushPoolShare(msg.sender, poolAmountOut);\n    }\n\n    /**\n     * @notice Exit a pool - redeem pool tokens for underlying assets\n     * @dev Emits a LogExit event for each token\n     *      bPool is a contract interface; function calls on it are external\n     * @param poolAmountIn - amount of pool tokens to redeem\n     * @param minAmountsOut - minimum amount of asset tokens to receive\n     */\n    function exitPool(uint poolAmountIn, uint[] calldata minAmountsOut)\n        external\n        logs\n        lock\n        needsBPool\n        lockUnderlyingPool\n    {\n        // Delegate to library to save space\n\n        // Library computes actualAmountsOut, and does many validations\n        // Also computes the exitFee and pAiAfterExitFee\n        (uint exitFee,\n         uint pAiAfterExitFee,\n         uint[] memory actualAmountsOut) = SmartPoolManager.exitPool(\n                                               IConfigurableRightsPool(address(this)),\n                                               bPool,\n                                               poolAmountIn,\n                                               minAmountsOut\n                                           );\n\n        _pullPoolShare(msg.sender, poolAmountIn);\n        _pushPoolShare(address(bFactory), exitFee);\n        _burnPoolShare(pAiAfterExitFee);\n\n        // After createPool, token list is maintained in the underlying BPool\n        address[] memory poolTokens = bPool.getCurrentTokens();\n\n        for (uint i = 0; i < poolTokens.length; i++) {\n            address t = poolTokens[i];\n            uint tokenAmountOut = actualAmountsOut[i];\n\n            emit LogExit(msg.sender, t, tokenAmountOut);\n\n            _pushUnderlying(t, msg.sender, tokenAmountOut);\n        }\n    }\n\n    /**\n     * @notice Join by swapping a fixed amount of an external token in (must be present in the pool)\n     *         System calculates the pool token amount\n     * @dev emits a LogJoin event\n     * @param tokenIn - which token we're transferring in\n     * @param tokenAmountIn - amount of deposit\n     * @param minPoolAmountOut - minimum of pool tokens to receive\n     * @return poolAmountOut - amount of pool tokens minted and transferred\n     */\n    function joinswapExternAmountIn(\n        address tokenIn,\n        uint tokenAmountIn,\n        uint minPoolAmountOut\n    )\n        external\n        logs\n        lock\n        needsBPool\n        returns (uint poolAmountOut)\n    {\n        require(!rights.canWhitelistLPs || _liquidityProviderWhitelist[msg.sender],\n                \"ERR_NOT_ON_WHITELIST\");\n\n        // Delegate to library to save space\n        poolAmountOut = SmartPoolManager.joinswapExternAmountIn(\n                            IConfigurableRightsPool(address(this)),\n                            bPool,\n                            tokenIn,\n                            tokenAmountIn,\n                            minPoolAmountOut\n                        );\n\n        emit LogJoin(msg.sender, tokenIn, tokenAmountIn);\n\n        _mintPoolShare(poolAmountOut);\n        _pushPoolShare(msg.sender, poolAmountOut);\n        _pullUnderlying(tokenIn, msg.sender, tokenAmountIn);\n\n        return poolAmountOut;\n    }\n\n    /**\n     * @notice Join by swapping an external token in (must be present in the pool)\n     *         To receive an exact amount of pool tokens out. System calculates the deposit amount\n     * @dev emits a LogJoin event\n     * @param tokenIn - which token we're transferring in (system calculates amount required)\n     * @param poolAmountOut - amount of pool tokens to be received\n     * @param maxAmountIn - Maximum asset tokens that can be pulled to pay for the pool tokens\n     * @return tokenAmountIn - amount of asset tokens transferred in to purchase the pool tokens\n     */\n    function joinswapPoolAmountOut(\n        address tokenIn,\n        uint poolAmountOut,\n        uint maxAmountIn\n    )\n        external\n        logs\n        lock\n        needsBPool\n        returns (uint tokenAmountIn)\n    {\n        require(!rights.canWhitelistLPs || _liquidityProviderWhitelist[msg.sender],\n                \"ERR_NOT_ON_WHITELIST\");\n\n        // Delegate to library to save space\n        tokenAmountIn = SmartPoolManager.joinswapPoolAmountOut(\n                            IConfigurableRightsPool(address(this)),\n                            bPool,\n                            tokenIn,\n                            poolAmountOut,\n                            maxAmountIn\n                        );\n\n        emit LogJoin(msg.sender, tokenIn, tokenAmountIn);\n\n        _mintPoolShare(poolAmountOut);\n        _pushPoolShare(msg.sender, poolAmountOut);\n        _pullUnderlying(tokenIn, msg.sender, tokenAmountIn);\n\n        return tokenAmountIn;\n    }\n\n    /**\n     * @notice Exit a pool - redeem a specific number of pool tokens for an underlying asset\n     *         Asset must be present in the pool, and will incur an EXIT_FEE (if set to non-zero)\n     * @dev Emits a LogExit event for the token\n     * @param tokenOut - which token the caller wants to receive\n     * @param poolAmountIn - amount of pool tokens to redeem\n     * @param minAmountOut - minimum asset tokens to receive\n     * @return tokenAmountOut - amount of asset tokens returned\n     */\n    function exitswapPoolAmountIn(\n        address tokenOut,\n        uint poolAmountIn,\n        uint minAmountOut\n    )\n        external\n        logs\n        lock\n        needsBPool\n        returns (uint tokenAmountOut)\n    {\n        // Delegate to library to save space\n\n        // Calculates final amountOut, and the fee and final amount in\n        (uint exitFee,\n         uint amountOut) = SmartPoolManager.exitswapPoolAmountIn(\n                               IConfigurableRightsPool(address(this)),\n                               bPool,\n                               tokenOut,\n                               poolAmountIn,\n                               minAmountOut\n                           );\n\n        tokenAmountOut = amountOut;\n        uint pAiAfterExitFee = BalancerSafeMath.bsub(poolAmountIn, exitFee);\n\n        emit LogExit(msg.sender, tokenOut, tokenAmountOut);\n\n        _pullPoolShare(msg.sender, poolAmountIn);\n        _burnPoolShare(pAiAfterExitFee);\n        _pushPoolShare(address(bFactory), exitFee);\n        _pushUnderlying(tokenOut, msg.sender, tokenAmountOut);\n\n        return tokenAmountOut;\n    }\n\n    /**\n     * @notice Exit a pool - redeem pool tokens for a specific amount of underlying assets\n     *         Asset must be present in the pool\n     * @dev Emits a LogExit event for the token\n     * @param tokenOut - which token the caller wants to receive\n     * @param tokenAmountOut - amount of underlying asset tokens to receive\n     * @param maxPoolAmountIn - maximum pool tokens to be redeemed\n     * @return poolAmountIn - amount of pool tokens redeemed\n     */\n    function exitswapExternAmountOut(\n        address tokenOut,\n        uint tokenAmountOut,\n        uint maxPoolAmountIn\n    )\n        external\n        logs\n        lock\n        needsBPool\n        returns (uint poolAmountIn)\n    {\n        // Delegate to library to save space\n\n        // Calculates final amounts in, accounting for the exit fee\n        (uint exitFee,\n         uint amountIn) = SmartPoolManager.exitswapExternAmountOut(\n                              IConfigurableRightsPool(address(this)),\n                              bPool,\n                              tokenOut,\n                              tokenAmountOut,\n                              maxPoolAmountIn\n                          );\n\n        poolAmountIn = amountIn;\n        uint pAiAfterExitFee = BalancerSafeMath.bsub(poolAmountIn, exitFee);\n\n        emit LogExit(msg.sender, tokenOut, tokenAmountOut);\n\n        _pullPoolShare(msg.sender, poolAmountIn);\n        _burnPoolShare(pAiAfterExitFee);\n        _pushPoolShare(address(bFactory), exitFee);\n        _pushUnderlying(tokenOut, msg.sender, tokenAmountOut);\n        \n        return poolAmountIn;\n    }\n\n    /**\n     * @notice Add to the whitelist of liquidity providers (if enabled)\n     * @param provider - address of the liquidity provider\n     */\n    function whitelistLiquidityProvider(address provider)\n        external\n        onlyOwner\n        lock\n        logs\n    {\n        require(rights.canWhitelistLPs, \"ERR_CANNOT_WHITELIST_LPS\");\n        require(provider != address(0), \"ERR_INVALID_ADDRESS\");\n\n        _liquidityProviderWhitelist[provider] = true;\n    }\n\n    /**\n     * @notice Remove from the whitelist of liquidity providers (if enabled)\n     * @param provider - address of the liquidity provider\n     */\n    function removeWhitelistedLiquidityProvider(address provider)\n        external\n        onlyOwner\n        lock\n        logs\n    {\n        require(rights.canWhitelistLPs, \"ERR_CANNOT_WHITELIST_LPS\");\n        require(_liquidityProviderWhitelist[provider], \"ERR_LP_NOT_WHITELISTED\");\n        require(provider != address(0), \"ERR_INVALID_ADDRESS\");\n\n        _liquidityProviderWhitelist[provider] = false;\n    }\n\n    /**\n     * @notice Check if an address is a liquidity provider\n     * @dev If the whitelist feature is not enabled, anyone can provide liquidity (assuming finalized)\n     * @return boolean value indicating whether the address can join a pool\n     */\n    function canProvideLiquidity(address provider)\n        external\n        view\n        returns(bool)\n    {\n        if (rights.canWhitelistLPs) {\n            return _liquidityProviderWhitelist[provider];\n        }\n        else {\n            // Probably don't strictly need this (could just return true)\n            // But the null address can't provide funds\n            return provider != address(0);\n        }\n    }\n\n    /**\n     * @notice Getter for specific permissions\n     * @dev value of the enum is just the 0-based index in the enumeration\n     *      For instance canPauseSwapping is 0; canChangeWeights is 2\n     * @return token boolean true if we have the given permission\n    */\n    function hasPermission(RightsManager.Permissions permission)\n        external\n        view\n        virtual\n        returns(bool)\n    {\n        return RightsManager.hasPermission(rights, permission);\n    }\n\n    /**\n     * @notice Get the denormalized weight of a token\n     * @dev viewlock to prevent calling if it's being updated\n     * @return token weight\n     */\n    function getDenormalizedWeight(address token)\n        external\n        view\n        viewlock\n        needsBPool\n        returns (uint)\n    {\n        return bPool.getDenormalizedWeight(token);\n    }\n\n    /**\n     * @notice Getter for the RightsManager contract\n     * @dev Convenience function to get the address of the RightsManager library (so clients can check version)\n     * @return address of the RightsManager library\n    */\n    function getRightsManagerVersion() external pure returns (address) {\n        return address(RightsManager);\n    }\n\n    /**\n     * @notice Getter for the BalancerSafeMath contract\n     * @dev Convenience function to get the address of the BalancerSafeMath library (so clients can check version)\n     * @return address of the BalancerSafeMath library\n    */\n    function getBalancerSafeMathVersion() external pure returns (address) {\n        return address(BalancerSafeMath);\n    }\n\n    /**\n     * @notice Getter for the SmartPoolManager contract\n     * @dev Convenience function to get the address of the SmartPoolManager library (so clients can check version)\n     * @return address of the SmartPoolManager library\n    */\n    function getSmartPoolManagerVersion() external pure returns (address) {\n        return address(SmartPoolManager);\n    }\n\n    // Public functions\n\n    // \"Public\" versions that can safely be called from SmartPoolManager\n    // Allows only the contract itself to call them (not the controller or any external account)\n\n    function mintPoolShareFromLib(uint amount) public {\n        require (msg.sender == address(this), \"ERR_NOT_CONTROLLER\");\n\n        _mint(amount);\n    }\n\n    function pushPoolShareFromLib(address to, uint amount) public {\n        require (msg.sender == address(this), \"ERR_NOT_CONTROLLER\");\n\n        _push(to, amount);\n    }\n\n    function pullPoolShareFromLib(address from, uint amount) public  {\n        require (msg.sender == address(this), \"ERR_NOT_CONTROLLER\");\n\n        _pull(from, amount);\n    }\n\n    function burnPoolShareFromLib(uint amount) public  {\n        require (msg.sender == address(this), \"ERR_NOT_CONTROLLER\");\n\n        _burn(amount);\n    }\n\n    // Internal functions\n\n    // Lint wants the function to have a leading underscore too\n    /* solhint-disable private-vars-leading-underscore */\n\n    /**\n     * @notice Create a new Smart Pool\n     * @dev Initialize the swap fee to the value provided in the CRP constructor\n     *      Can be changed if the canChangeSwapFee permission is enabled\n     * @param initialSupply starting token balance\n     */\n    function createPoolInternal(uint initialSupply) internal {\n        require(address(bPool) == address(0), \"ERR_IS_CREATED\");\n        require(initialSupply >= BalancerConstants.MIN_POOL_SUPPLY, \"ERR_INIT_SUPPLY_MIN\");\n        require(initialSupply <= BalancerConstants.MAX_POOL_SUPPLY, \"ERR_INIT_SUPPLY_MAX\");\n\n        // If the controller can change the cap, initialize it to the initial supply\n        // Defensive programming, so that there is no gap between creating the pool\n        // (initialized to unlimited in the constructor), and setting the cap,\n        // which they will presumably do if they have this right.\n        if (rights.canChangeCap) {\n            bspCap = initialSupply;\n        }\n\n        // There is technically reentrancy here, since we're making external calls and\n        // then transferring tokens. However, the external calls are all to the underlying BPool\n\n        // To the extent possible, modify state variables before calling functions\n        _mintPoolShare(initialSupply);\n        _pushPoolShare(msg.sender, initialSupply);\n\n        // Deploy new BPool (bFactory and bPool are interfaces; all calls are external)\n        bPool = bFactory.newBPool();\n\n        // EXIT_FEE must always be zero, or ConfigurableRightsPool._pushUnderlying will fail\n        require(bPool.EXIT_FEE() == 0, \"ERR_NONZERO_EXIT_FEE\");\n        require(BalancerConstants.EXIT_FEE == 0, \"ERR_NONZERO_EXIT_FEE\");\n\n        for (uint i = 0; i < _initialTokens.length; i++) {\n            address t = _initialTokens[i];\n            uint bal = _initialBalances[i];\n            uint denorm = gradualUpdate.startWeights[i];\n\n            bool returnValue = IERC20(t).transferFrom(msg.sender, address(this), bal);\n            require(returnValue, \"ERR_ERC20_FALSE\");\n\n            returnValue = IERC20(t).safeApprove(address(bPool), BalancerConstants.MAX_UINT);\n            require(returnValue, \"ERR_ERC20_FALSE\");\n\n            bPool.bind(t, bal, denorm);\n        }\n\n        while (_initialTokens.length > 0) {\n            // Modifying state variable after external calls here,\n            // but not essential, so not dangerous\n            _initialTokens.pop();\n        }\n\n        // Set fee to the initial value set in the constructor\n        // Hereafter, read the swapFee from the underlying pool, not the local state variable\n        bPool.setSwapFee(_initialSwapFee);\n        bPool.setPublicSwap(true);\n\n        // \"destroy\" the temporary swap fee (like _initialTokens above) in case a subclass tries to use it\n        _initialSwapFee = 0;\n    }\n\n    /* solhint-enable private-vars-leading-underscore */\n\n    // Rebind BPool and pull tokens from address\n    // bPool is a contract interface; function calls on it are external\n    function _pullUnderlying(address erc20, address from, uint amount) internal needsBPool {\n        // Gets current Balance of token i, Bi, and weight of token i, Wi, from BPool.\n        uint tokenBalance = bPool.getBalance(erc20);\n        uint tokenWeight = bPool.getDenormalizedWeight(erc20);\n\n        bool xfer = IERC20(erc20).transferFrom(from, address(this), amount);\n        require(xfer, \"ERR_ERC20_FALSE\");\n        bPool.rebind(erc20, BalancerSafeMath.badd(tokenBalance, amount), tokenWeight);\n    }\n\n    // Rebind BPool and push tokens to address\n    // bPool is a contract interface; function calls on it are external\n    function _pushUnderlying(address erc20, address to, uint amount) internal needsBPool {\n        // Gets current Balance of token i, Bi, and weight of token i, Wi, from BPool.\n        uint tokenBalance = bPool.getBalance(erc20);\n        uint tokenWeight = bPool.getDenormalizedWeight(erc20);\n        bPool.rebind(erc20, BalancerSafeMath.bsub(tokenBalance, amount), tokenWeight);\n\n        bool xfer = IERC20(erc20).transfer(to, amount);\n        require(xfer, \"ERR_ERC20_FALSE\");\n    }\n\n    // Wrappers around corresponding core functions\n\n    // \n    function _mint(uint amount) internal override {\n        super._mint(amount);\n        require(varTotalSupply <= bspCap, \"ERR_CAP_LIMIT_REACHED\");\n    }\n\n    function _mintPoolShare(uint amount) internal {\n        _mint(amount);\n    }\n\n    function _pushPoolShare(address to, uint amount) internal {\n        _push(to, amount);\n    }\n\n    function _pullPoolShare(address from, uint amount) internal  {\n        _pull(from, amount);\n    }\n\n    function _burnPoolShare(uint amount) internal  {\n        _burn(amount);\n    }\n}\n",
  "sourcePath": "/home/servatj/os/real-fund-smartpool/contracts/realfundBalancer/balancer/ConfigurableRightsPool.sol",
  "compiler": {
    "name": "solc",
    "version": "0.6.12+commit.27d51765.Emscripten.clang"
  },
  "schemaVersion": "3.3.1",
  "updatedAt": "2020-11-21T10:32:57.519Z",
  "devdoc": {
    "author": "Balancer Labs",
    "details": "Rights are defined as follows (index values into the array)      0: canPauseSwapping - can setPublicSwap back to false after turning it on                            by default, it is off on initialization and can only be turned on      1: canChangeSwapFee - can setSwapFee after initialization (by default, it is fixed at create time)      2: canChangeWeights - can bind new token weights (allowed by default in base pool)      3: canAddRemoveTokens - can bind/unbind tokens (allowed by default in base pool)      4: canWhitelistLPs - can restrict LPs to a whitelist      5: canChangeCap - can change the BSP cap (max # of pool tokens) Note that functions called on bPool and bFactory may look like internal calls,   but since they are contracts accessed through an interface, they are really external. To make this explicit, we could write \"IBPool(address(bPool)).function()\" everywhere,   instead of \"bPool.function()\".",
    "kind": "dev",
    "methods": {
      "allowance(address,address)": {
        "params": {
          "owner": "- owner of the tokens",
          "spender": "- entity allowed to spend the tokens"
        },
        "returns": {
          "_0": "uint - remaining amount spender is allowed to transfer"
        }
      },
      "approve(address,uint256)": {
        "details": "emits an Approval event",
        "params": {
          "amount": "- number of tokens being approved",
          "spender": "- entity the owner (sender) is approving to spend his tokens"
        },
        "returns": {
          "_0": "bool - result of the approval (will always be true if it doesn't revert)"
        }
      },
      "balanceOf(address)": {
        "params": {
          "account": "- address we're checking the balance of"
        },
        "returns": {
          "_0": "uint - token balance in the account"
        }
      },
      "canProvideLiquidity(address)": {
        "details": "If the whitelist feature is not enabled, anyone can provide liquidity (assuming finalized)",
        "returns": {
          "_0": "boolean value indicating whether the address can join a pool"
        }
      },
      "commitAddToken(address,uint256,uint256)": {
        "details": "The purpose of this two-stage commit is to give warning of a potentially dangerous      operation. A malicious pool operator could add a large amount of a low-value token,      then drain the pool through price manipulation. Of course, there are many      legitimate purposes, such as adding additional collateral tokens.",
        "params": {
          "balance": "- how much to be added",
          "denormalizedWeight": "- the desired token weight",
          "token": "- the token to be added"
        }
      },
      "constructor": {
        "details": "_initialTokens and _swapFee are only used for temporary storage between construction      and create pool, and should not be used thereafter! _initialTokens is destroyed in      createPool to prevent this, and _swapFee is kept in sync (defensively), but      should never be used except in this constructor and createPool()",
        "params": {
          "factoryAddress": "- the BPoolFactory used to create the underlying pool",
          "poolParams": "- struct containing pool parameters",
          "rightsStruct": "- Set of permissions we are assigning to this smart pool"
        }
      },
      "createPool(uint256)": {
        "details": "Delegates to internal function",
        "params": {
          "initialSupply": "starting token balance"
        }
      },
      "createPool(uint256,uint256,uint256)": {
        "details": "Initialize the swap fee to the value provided in the CRP constructor      Can be changed if the canChangeSwapFee permission is enabled      Time parameters will be fixed at these values      If this contract doesn't have canChangeWeights permission - or you want to use the default      values, the block time arguments are not needed, and you can just call the single-argument      createPool()",
        "params": {
          "addTokenTimeLockInBlocksParam": "- Enforce a mandatory wait time between updates                                   This is also the wait time between committing and applying a new token",
          "initialSupply": "- Starting token balance",
          "minimumWeightChangeBlockPeriodParam": "- Enforce a minimum time between the start and end blocks"
        }
      },
      "decimals()": {
        "details": "Returns the number of decimals used to get its user representation. For example, if `decimals` equals `2`, a balance of `505` tokens should be displayed to a user as `5,05` (`505 / 10 ** 2`). Tokens usually opt for a value of 18, imitating the relationship between Ether and Wei. This is the value {ERC20} uses, unless {_setupDecimals} is called. NOTE: This information is only used for _display_ purposes: it in no way affects any of the arithmetic of the contract, including {IERC20-balanceOf} and {IERC20-transfer}."
      },
      "decreaseApproval(address,uint256)": {
        "details": "emits an Approval eventIf you try to decrease it below the current limit, it's just set to zero (not an error)",
        "params": {
          "amount": "- number of tokens being approved",
          "spender": "- entity the owner (sender) is approving to spend his tokens"
        },
        "returns": {
          "_0": "bool - result of the approval (will always be true if it doesn't revert)"
        }
      },
      "exitPool(uint256,uint256[])": {
        "details": "Emits a LogExit event for each token      bPool is a contract interface; function calls on it are external",
        "params": {
          "minAmountsOut": "- minimum amount of asset tokens to receive",
          "poolAmountIn": "- amount of pool tokens to redeem"
        }
      },
      "exitswapExternAmountOut(address,uint256,uint256)": {
        "details": "Emits a LogExit event for the token",
        "params": {
          "maxPoolAmountIn": "- maximum pool tokens to be redeemed",
          "tokenAmountOut": "- amount of underlying asset tokens to receive",
          "tokenOut": "- which token the caller wants to receive"
        },
        "returns": {
          "poolAmountIn": "- amount of pool tokens redeemed"
        }
      },
      "exitswapPoolAmountIn(address,uint256,uint256)": {
        "details": "Emits a LogExit event for the token",
        "params": {
          "minAmountOut": "- minimum asset tokens to receive",
          "poolAmountIn": "- amount of pool tokens to redeem",
          "tokenOut": "- which token the caller wants to receive"
        },
        "returns": {
          "tokenAmountOut": "- amount of asset tokens returned"
        }
      },
      "getBalancerSafeMathVersion()": {
        "details": "Convenience function to get the address of the BalancerSafeMath library (so clients can check version)",
        "returns": {
          "_0": "address of the BalancerSafeMath library"
        }
      },
      "getController()": {
        "details": "external for gas optimization",
        "returns": {
          "_0": "address - of the owner (AKA controller)"
        }
      },
      "getDenormalizedWeight(address)": {
        "details": "viewlock to prevent calling if it's being updated",
        "returns": {
          "_0": "token weight"
        }
      },
      "getRightsManagerVersion()": {
        "details": "Convenience function to get the address of the RightsManager library (so clients can check version)",
        "returns": {
          "_0": "address of the RightsManager library"
        }
      },
      "getSmartPoolManagerVersion()": {
        "details": "Convenience function to get the address of the SmartPoolManager library (so clients can check version)",
        "returns": {
          "_0": "address of the SmartPoolManager library"
        }
      },
      "hasPermission(uint8)": {
        "details": "value of the enum is just the 0-based index in the enumeration      For instance canPauseSwapping is 0; canChangeWeights is 2",
        "returns": {
          "_0": "token boolean true if we have the given permission"
        }
      },
      "increaseApproval(address,uint256)": {
        "details": "emits an Approval event",
        "params": {
          "amount": "- number of tokens being approved",
          "spender": "- entity the owner (sender) is approving to spend his tokens"
        },
        "returns": {
          "_0": "bool - result of the approval (will always be true if it doesn't revert)"
        }
      },
      "isPublicSwap()": {
        "details": "viewLock, because setPublicSwap is lock      bPool is a contract interface; function calls on it are external",
        "returns": {
          "_0": "Current value of isPublicSwap"
        }
      },
      "joinPool(uint256,uint256[])": {
        "details": "Emits a LogJoin event (for each token)      bPool is a contract interface; function calls on it are external",
        "params": {
          "maxAmountsIn": "- Max amount of asset tokens to spend",
          "poolAmountOut": "- number of pool tokens to receive"
        }
      },
      "joinswapExternAmountIn(address,uint256,uint256)": {
        "details": "emits a LogJoin event",
        "params": {
          "minPoolAmountOut": "- minimum of pool tokens to receive",
          "tokenAmountIn": "- amount of deposit",
          "tokenIn": "- which token we're transferring in"
        },
        "returns": {
          "poolAmountOut": "- amount of pool tokens minted and transferred"
        }
      },
      "joinswapPoolAmountOut(address,uint256,uint256)": {
        "details": "emits a LogJoin event",
        "params": {
          "maxAmountIn": "- Maximum asset tokens that can be pulled to pay for the pool tokens",
          "poolAmountOut": "- amount of pool tokens to be received",
          "tokenIn": "- which token we're transferring in (system calculates amount required)"
        },
        "returns": {
          "tokenAmountIn": "- amount of asset tokens transferred in to purchase the pool tokens"
        }
      },
      "name()": {
        "details": "Returns the name of the token.      We allow the user to set this name (as well as the symbol).      Alternatives are 1) A fixed string (original design)                       2) A fixed string plus the user-defined symbol                          return string(abi.encodePacked(NAME, \"-\", _symbol));"
      },
      "pokeWeights()": {
        "details": "Still works if we poke after the end of the period; also works if the weights don't change      Resets if we are poking beyond the end, so that we can do it again"
      },
      "removeToken(address)": {
        "details": "bPool is a contract interface; function calls on it are external",
        "params": {
          "token": "- token to remove"
        }
      },
      "removeWhitelistedLiquidityProvider(address)": {
        "params": {
          "provider": "- address of the liquidity provider"
        }
      },
      "setCap(uint256)": {
        "details": "_bspCap defaults in the constructor to unlimited      Can set to 0 (or anywhere below the current supply), to halt new investment      Prevent setting it before creating a pool, since createPool sets to intialSupply      (it does this to avoid an unlimited cap window between construction and createPool)      Therefore setting it before then has no effect, so should not be allowed",
        "params": {
          "newCap": "- new value of the cap"
        }
      },
      "setController(address)": {
        "details": "external for gas optimization",
        "params": {
          "newOwner": "- address of new owner"
        }
      },
      "setPublicSwap(bool)": {
        "details": "If this smart pool has canPauseSwapping enabled, we can turn publicSwap off if it's already on      Note that if they turn swapping off - but then finalize the pool - finalizing will turn the      swapping back on. They're not supposed to finalize the underlying pool... would defeat the      smart pool functions. (Only the owner can finalize the pool - which is this contract -      so there is no risk from outside.)      bPool is a contract interface; function calls on it are external",
        "params": {
          "publicSwap": "new value of the swap"
        }
      },
      "setSwapFee(uint256)": {
        "details": "Keep the local version and core in sync (see below)      bPool is a contract interface; function calls on it are external",
        "params": {
          "swapFee": "in Wei"
        }
      },
      "symbol()": {
        "details": "Returns the symbol of the token, usually a shorter version of the name."
      },
      "totalSupply()": {
        "details": "declared external for gas optimization",
        "returns": {
          "_0": "uint - total number of tokens in existence"
        }
      },
      "transfer(address,uint256)": {
        "details": "_move emits a Transfer event if successful",
        "params": {
          "amount": "- number of tokens being transferred",
          "recipient": "- entity receiving the tokens"
        },
        "returns": {
          "_0": "bool - result of the transfer (will always be true if it doesn't revert)"
        }
      },
      "transferFrom(address,address,uint256)": {
        "details": "_move emits a Transfer event if successful; may also emit an Approval event",
        "params": {
          "amount": "- number of tokens being transferred",
          "recipient": "- recipient of the tokens",
          "sender": "- entity sending the tokens (must be caller or allowed to spend on behalf of caller)"
        },
        "returns": {
          "_0": "bool - result of the transfer (will always be true if it doesn't revert)"
        }
      },
      "updateWeight(address,uint256)": {
        "details": "Notice Balance is not an input (like with rebind on BPool) since we will require prices not to change      This is achieved by forcing balances to change proportionally to weights, so that prices don't change      If prices could be changed, this would allow the controller to drain the pool by arbing price changes",
        "params": {
          "newWeight": "- new weight of the token",
          "token": "- token to be reweighted"
        }
      },
      "updateWeightsGradually(uint256[],uint256,uint256)": {
        "details": "Must call pokeWeights at least once past the end for it to do the final update      and enable calling this again.      It is possible to call updateWeightsGradually during an update in some use cases      For instance, setting newWeights to currentWeights to stop the update where it is",
        "params": {
          "endBlock": "- when weights will be at their final values",
          "newWeights": "- final weights we want to get to. Note that the ORDER (and number) of                     tokens can change if you have added or removed tokens from the pool                     It ensures the counts are correct, but can't help you with the order!                     You can get the underlying BPool (it's public), and call                      getCurrentTokens() to see the current ordering, if you're not sure",
          "startBlock": "- when weights should start to change"
        }
      },
      "whitelistLiquidityProvider(address)": {
        "params": {
          "provider": "- address of the liquidity provider"
        }
      }
    },
    "title": "Smart Pool with customizable features",
    "version": 1
  },
  "userdoc": {
    "kind": "user",
    "methods": {
      "allowance(address,address)": {
        "notice": "Getter for allowance: amount spender will be allowed to spend on behalf of owner"
      },
      "applyAddToken()": {
        "notice": "Add the token previously committed (in commitAddToken) to the pool"
      },
      "approve(address,uint256)": {
        "notice": "Approve owner (sender) to spend a certain amount"
      },
      "balanceOf(address)": {
        "notice": "Getter for current account balance"
      },
      "canProvideLiquidity(address)": {
        "notice": "Check if an address is a liquidity provider"
      },
      "commitAddToken(address,uint256,uint256)": {
        "notice": "Schedule (commit) a token to be added; must call applyAddToken after a fixed         number of blocks to actually add the token"
      },
      "constructor": "Construct a new Configurable Rights Pool (wrapper around BPool)",
      "createPool(uint256)": {
        "notice": "Create a new Smart Pool"
      },
      "createPool(uint256,uint256,uint256)": {
        "notice": "Create a new Smart Pool - and set the block period time parameters"
      },
      "decreaseApproval(address,uint256)": {
        "notice": "Decrease the amount the spender is allowed to spend on behalf of the owner (sender)"
      },
      "exitPool(uint256,uint256[])": {
        "notice": "Exit a pool - redeem pool tokens for underlying assets"
      },
      "exitswapExternAmountOut(address,uint256,uint256)": {
        "notice": "Exit a pool - redeem pool tokens for a specific amount of underlying assets         Asset must be present in the pool"
      },
      "exitswapPoolAmountIn(address,uint256,uint256)": {
        "notice": "Exit a pool - redeem a specific number of pool tokens for an underlying asset         Asset must be present in the pool, and will incur an EXIT_FEE (if set to non-zero)"
      },
      "getBalancerSafeMathVersion()": {
        "notice": "Getter for the BalancerSafeMath contract"
      },
      "getController()": {
        "notice": "Returns the address of the current owner"
      },
      "getDenormalizedWeight(address)": {
        "notice": "Get the denormalized weight of a token"
      },
      "getRightsManagerVersion()": {
        "notice": "Getter for the RightsManager contract"
      },
      "getSmartPoolManagerVersion()": {
        "notice": "Getter for the SmartPoolManager contract"
      },
      "hasPermission(uint8)": {
        "notice": "Getter for specific permissions"
      },
      "increaseApproval(address,uint256)": {
        "notice": "Increase the amount the spender is allowed to spend on behalf of the owner (sender)"
      },
      "isPublicSwap()": {
        "notice": "Getter for the publicSwap field on the underlying pool"
      },
      "joinPool(uint256,uint256[])": {
        "notice": "Join a pool"
      },
      "joinswapExternAmountIn(address,uint256,uint256)": {
        "notice": "Join by swapping a fixed amount of an external token in (must be present in the pool)         System calculates the pool token amount"
      },
      "joinswapPoolAmountOut(address,uint256,uint256)": {
        "notice": "Join by swapping an external token in (must be present in the pool)         To receive an exact amount of pool tokens out. System calculates the deposit amount"
      },
      "pokeWeights()": {
        "notice": "External function called to make the contract update weights according to plan"
      },
      "removeToken(address)": {
        "notice": "Remove a token from the pool"
      },
      "removeWhitelistedLiquidityProvider(address)": {
        "notice": "Remove from the whitelist of liquidity providers (if enabled)"
      },
      "setCap(uint256)": {
        "notice": "Set the cap (max # of pool tokens)"
      },
      "setController(address)": {
        "notice": "Transfers ownership of the contract to a new account (`newOwner`).         Can only be called by the current owner"
      },
      "setPublicSwap(bool)": {
        "notice": "Set the public swap flag on the underlying pool"
      },
      "setSwapFee(uint256)": {
        "notice": "Set the swap fee on the underlying pool"
      },
      "totalSupply()": {
        "notice": "Getter for the total supply"
      },
      "transfer(address,uint256)": {
        "notice": "Transfer the given amount from sender (caller) to recipient"
      },
      "transferFrom(address,address,uint256)": {
        "notice": "Transfer the given amount from sender to recipient"
      },
      "updateWeight(address,uint256)": {
        "notice": "Update the weight of an existing token"
      },
      "updateWeightsGradually(uint256[],uint256,uint256)": {
        "notice": "Update weights in a predetermined way, between startBlock and endBlock,         through external calls to pokeWeights"
      },
      "whitelistLiquidityProvider(address)": {
        "notice": "Add to the whitelist of liquidity providers (if enabled)"
      }
    },
    "notice": "PCToken is the \"Balancer Smart Pool\" token (transferred upon finalization)",
    "version": 1
  }
}