{
  "contractName": "RealFundTokenERC20",
  "abi": [
    {
      "inputs": [
        {
          "internalType": "uint256",
          "name": "initialSupply",
          "type": "uint256"
        }
      ],
      "stateMutability": "nonpayable",
      "type": "constructor"
    },
    {
      "anonymous": false,
      "inputs": [
        {
          "indexed": true,
          "internalType": "address",
          "name": "owner",
          "type": "address"
        },
        {
          "indexed": true,
          "internalType": "address",
          "name": "spender",
          "type": "address"
        },
        {
          "indexed": false,
          "internalType": "uint256",
          "name": "value",
          "type": "uint256"
        }
      ],
      "name": "Approval",
      "type": "event"
    },
    {
      "anonymous": false,
      "inputs": [
        {
          "indexed": true,
          "internalType": "address",
          "name": "from",
          "type": "address"
        },
        {
          "indexed": true,
          "internalType": "address",
          "name": "to",
          "type": "address"
        },
        {
          "indexed": false,
          "internalType": "uint256",
          "name": "value",
          "type": "uint256"
        }
      ],
      "name": "Transfer",
      "type": "event"
    },
    {
      "inputs": [
        {
          "internalType": "address",
          "name": "owner",
          "type": "address"
        },
        {
          "internalType": "address",
          "name": "spender",
          "type": "address"
        }
      ],
      "name": "allowance",
      "outputs": [
        {
          "internalType": "uint256",
          "name": "",
          "type": "uint256"
        }
      ],
      "stateMutability": "view",
      "type": "function",
      "constant": true
    },
    {
      "inputs": [
        {
          "internalType": "address",
          "name": "spender",
          "type": "address"
        },
        {
          "internalType": "uint256",
          "name": "amount",
          "type": "uint256"
        }
      ],
      "name": "approve",
      "outputs": [
        {
          "internalType": "bool",
          "name": "",
          "type": "bool"
        }
      ],
      "stateMutability": "nonpayable",
      "type": "function"
    },
    {
      "inputs": [
        {
          "internalType": "address",
          "name": "account",
          "type": "address"
        }
      ],
      "name": "balanceOf",
      "outputs": [
        {
          "internalType": "uint256",
          "name": "",
          "type": "uint256"
        }
      ],
      "stateMutability": "view",
      "type": "function",
      "constant": true
    },
    {
      "inputs": [],
      "name": "decimals",
      "outputs": [
        {
          "internalType": "uint8",
          "name": "",
          "type": "uint8"
        }
      ],
      "stateMutability": "view",
      "type": "function",
      "constant": true
    },
    {
      "inputs": [
        {
          "internalType": "address",
          "name": "spender",
          "type": "address"
        },
        {
          "internalType": "uint256",
          "name": "subtractedValue",
          "type": "uint256"
        }
      ],
      "name": "decreaseAllowance",
      "outputs": [
        {
          "internalType": "bool",
          "name": "",
          "type": "bool"
        }
      ],
      "stateMutability": "nonpayable",
      "type": "function"
    },
    {
      "inputs": [
        {
          "internalType": "address",
          "name": "spender",
          "type": "address"
        },
        {
          "internalType": "uint256",
          "name": "addedValue",
          "type": "uint256"
        }
      ],
      "name": "increaseAllowance",
      "outputs": [
        {
          "internalType": "bool",
          "name": "",
          "type": "bool"
        }
      ],
      "stateMutability": "nonpayable",
      "type": "function"
    },
    {
      "inputs": [],
      "name": "name",
      "outputs": [
        {
          "internalType": "string",
          "name": "",
          "type": "string"
        }
      ],
      "stateMutability": "view",
      "type": "function",
      "constant": true
    },
    {
      "inputs": [],
      "name": "symbol",
      "outputs": [
        {
          "internalType": "string",
          "name": "",
          "type": "string"
        }
      ],
      "stateMutability": "view",
      "type": "function",
      "constant": true
    },
    {
      "inputs": [],
      "name": "totalSupply",
      "outputs": [
        {
          "internalType": "uint256",
          "name": "",
          "type": "uint256"
        }
      ],
      "stateMutability": "view",
      "type": "function",
      "constant": true
    },
    {
      "inputs": [
        {
          "internalType": "address",
          "name": "newOwner",
          "type": "address"
        }
      ],
      "name": "changeOwner",
      "outputs": [],
      "stateMutability": "nonpayable",
      "type": "function"
    },
    {
      "inputs": [
        {
          "internalType": "address",
          "name": "account",
          "type": "address"
        }
      ],
      "name": "addToWhitelist",
      "outputs": [],
      "stateMutability": "nonpayable",
      "type": "function"
    },
    {
      "inputs": [
        {
          "internalType": "address",
          "name": "account",
          "type": "address"
        }
      ],
      "name": "removeFromWhitelist",
      "outputs": [],
      "stateMutability": "nonpayable",
      "type": "function"
    },
    {
      "inputs": [
        {
          "internalType": "address",
          "name": "account",
          "type": "address"
        }
      ],
      "name": "isWhitelisted",
      "outputs": [
        {
          "internalType": "bool",
          "name": "",
          "type": "bool"
        }
      ],
      "stateMutability": "view",
      "type": "function",
      "constant": true
    },
    {
      "inputs": [
        {
          "internalType": "address",
          "name": "recipient",
          "type": "address"
        },
        {
          "internalType": "uint256",
          "name": "amount",
          "type": "uint256"
        }
      ],
      "name": "transfer",
      "outputs": [
        {
          "internalType": "bool",
          "name": "",
          "type": "bool"
        }
      ],
      "stateMutability": "nonpayable",
      "type": "function"
    },
    {
      "inputs": [
        {
          "internalType": "address",
          "name": "sender",
          "type": "address"
        },
        {
          "internalType": "address",
          "name": "recipient",
          "type": "address"
        },
        {
          "internalType": "uint256",
          "name": "amount",
          "type": "uint256"
        }
      ],
      "name": "transferFrom",
      "outputs": [
        {
          "internalType": "bool",
          "name": "",
          "type": "bool"
        }
      ],
      "stateMutability": "nonpayable",
      "type": "function"
    },
    {
      "inputs": [
        {
          "internalType": "address",
          "name": "account",
          "type": "address"
        }
      ],
      "name": "toString",
      "outputs": [
        {
          "internalType": "string",
          "name": "",
          "type": "string"
        }
      ],
      "stateMutability": "pure",
      "type": "function",
      "constant": true
    },
    {
      "inputs": [
        {
          "internalType": "uint256",
          "name": "value",
          "type": "uint256"
        }
      ],
      "name": "toString",
      "outputs": [
        {
          "internalType": "string",
          "name": "",
          "type": "string"
        }
      ],
      "stateMutability": "pure",
      "type": "function",
      "constant": true
    },
    {
      "inputs": [
        {
          "internalType": "bytes",
          "name": "data",
          "type": "bytes"
        }
      ],
      "name": "toString",
      "outputs": [
        {
          "internalType": "string",
          "name": "",
          "type": "string"
        }
      ],
      "stateMutability": "pure",
      "type": "function",
      "constant": true
    },
    {
      "inputs": [
        {
          "internalType": "bytes32",
          "name": "value",
          "type": "bytes32"
        }
      ],
      "name": "toString",
      "outputs": [
        {
          "internalType": "string",
          "name": "",
          "type": "string"
        }
      ],
      "stateMutability": "pure",
      "type": "function",
      "constant": true
    }
  ],
  "bytecode": "0x60806040523480156200001157600080fd5b506040516200130538038062001305833981810160405260208110156200003757600080fd5b505160408051808201825260088152671499585b119d5b9960c21b6020828101918252835180850190945260038085526214919160ea1b91850191909152825192939262000086929062000255565b5080516200009c90600490602084019062000255565b505060058054601260ff1990911617610100600160a81b0319166101003390810291909117909155620000d1915082620000f2565b50336000908152600660205260409020805460ff19166001179055620002f1565b6001600160a01b0382166200014e576040805162461bcd60e51b815260206004820152601f60248201527f45524332303a206d696e7420746f20746865207a65726f206164647265737300604482015290519081900360640190fd5b6200016a81600254620001f360201b62000b701790919060201c565b6002556001600160a01b038216600090815260208181526040909120546200019d91839062000b70620001f3821b17901c565b6001600160a01b0383166000818152602081815260408083209490945583518581529351929391927fddf252ad1be2c89b69c2b068fc378daa952ba7f163c4a11628f55a4df523b3ef9281900390910190a35050565b6000828201838110156200024e576040805162461bcd60e51b815260206004820152601b60248201527f536166654d6174683a206164646974696f6e206f766572666c6f770000000000604482015290519081900360640190fd5b9392505050565b828054600181600116156101000203166002900490600052602060002090601f016020900481019282601f106200029857805160ff1916838001178555620002c8565b82800160010185558215620002c8579182015b82811115620002c8578251825591602001919060010190620002ab565b50620002d6929150620002da565b5090565b5b80821115620002d65760008155600101620002db565b61100480620003016000396000f3fe608060405234801561001057600080fd5b50600436106101215760003560e01c806370a08231116100ad578063a6f9dae111610071578063a6f9dae11461040e578063a9059cbb14610434578063b11a19e8146102c9578063dd62ed3e14610460578063e43252d71461048e57610121565b806370a08231146102e657806371aad10d1461030c5780638ab1d681146103b257806395d89b41146103da578063a457c2d7146103e257610121565b8063313ce567116100f4578063313ce5671461023357806339509351146102515780633af32abf1461027d57806356ca623e146102a35780636900a3ae146102c957610121565b806306fdde0314610126578063095ea7b3146101a357806318160ddd146101e357806323b872dd146101fd575b600080fd5b61012e6104b4565b6040805160208082528351818301528351919283929083019185019080838360005b83811015610168578181015183820152602001610150565b50505050905090810190601f1680156101955780820380516001836020036101000a031916815260200191505b509250505060405180910390f35b6101cf600480360360408110156101b957600080fd5b506001600160a01b03813516906020013561054a565b604080519115158252519081900360200190f35b6101eb610560565b60408051918252519081900360200190f35b6101cf6004803603606081101561021357600080fd5b506001600160a01b03813581169160208101359091169060400135610566565b61023b610628565b6040805160ff9092168252519081900360200190f35b6101cf6004803603604081101561026757600080fd5b506001600160a01b038135169060200135610631565b6101cf6004803603602081101561029357600080fd5b50356001600160a01b031661066c565b61012e600480360360208110156102b957600080fd5b50356001600160a01b031661068a565b61012e600480360360208110156102df57600080fd5b50356106c6565b6101eb600480360360208110156102fc57600080fd5b50356001600160a01b03166106f0565b61012e6004803603602081101561032257600080fd5b81019060208101813564010000000081111561033d57600080fd5b82018360208201111561034f57600080fd5b8035906020019184600183028401116401000000008311171561037157600080fd5b91908080601f01602080910402602001604051908101604052809392919081815260200183838082843760009201919091525092955061070b945050505050565b6103d8600480360360208110156103c857600080fd5b50356001600160a01b03166108b5565b005b61012e610926565b6101cf600480360360408110156103f857600080fd5b506001600160a01b038135169060200135610987565b6103d86004803603602081101561042457600080fd5b50356001600160a01b03166109d6565b6101cf6004803603604081101561044a57600080fd5b506001600160a01b038135169060200135610a4e565b6101eb6004803603604081101561047657600080fd5b506001600160a01b0381358116916020013516610ad1565b6103d8600480360360208110156104a457600080fd5b50356001600160a01b0316610afc565b60038054604080516020601f60026000196101006001881615020190951694909404938401819004810282018101909252828152606093909290918301828280156105405780601f1061051557610100808354040283529160200191610540565b820191906000526020600020905b81548152906001019060200180831161052357829003601f168201915b5050505050905090565b6000610557338484610bca565b50600192915050565b60025490565b6001600160a01b03821660009081526006602052604081205460ff1661058b8461068a565b906106145760405162461bcd60e51b81526004018080602001828103825283818151815260200191508051906020019080838360005b838110156105d95781810151838201526020016105c1565b50505050905090810190601f1680156106065780820380516001836020036101000a031916815260200191505b509250505060405180910390fd5b50610620848484610cb6565b949350505050565b60055460ff1690565b3360008181526001602090815260408083206001600160a01b038716845290915281205490916105579185906106679086610b70565b610bca565b6001600160a01b031660009081526006602052604090205460ff1690565b60606106c08260405160200180826001600160a01b031660601b815260140191505060405160208183030381529060405261070b565b92915050565b60606106c0826040516020018082815260200191505060405160208183030381529060405261070b565b6001600160a01b031660009081526020819052604090205490565b6060806040518060400160405280601081526020016f181899199a1a9b1b9c1cb0b131b232b360811b81525090506060835160020260020167ffffffffffffffff8111801561075957600080fd5b506040519080825280601f01601f191660200182016040528015610784576020820181803683370190505b509050600360fc1b8160008151811061079957fe5b60200101906001600160f81b031916908160001a905350600f60fb1b816001815181106107c257fe5b60200101906001600160f81b031916908160001a90535060005b84518110156108ad578260048683815181106107f457fe5b016020015182516001600160f81b031990911690911c60f81c90811061081657fe5b602001015160f81c60f81b82826002026002018151811061083357fe5b60200101906001600160f81b031916908160001a9053508285828151811061085757fe5b602091010151815160f89190911c600f1690811061087157fe5b602001015160f81c60f81b82826002026003018151811061088e57fe5b60200101906001600160f81b031916908160001a9053506001016107dc565b509392505050565b60055461010090046001600160a01b03163314610905576040805162461bcd60e51b815260206004820152600960248201526827b7363ca7bbb732b960b91b604482015290519081900360640190fd5b6001600160a01b03166000908152600660205260409020805460ff19169055565b60048054604080516020601f60026000196101006001881615020190951694909404938401819004810282018101909252828152606093909290918301828280156105405780601f1061051557610100808354040283529160200191610540565b6000610557338461066785604051806060016040528060258152602001610faa602591393360009081526001602090815260408083206001600160a01b038d1684529091529020549190610d1a565b60055461010090046001600160a01b03163314610a26576040805162461bcd60e51b815260206004820152600960248201526827b7363ca7bbb732b960b91b604482015290519081900360640190fd5b600580546001600160a01b0390921661010002610100600160a81b0319909216919091179055565b6001600160a01b03821660009081526006602052604081205460ff16610a738461068a565b90610abf5760405162461bcd60e51b81526020600482018181528351602484015283519092839260449091019190850190808383600083156105d95781810151838201526020016105c1565b50610aca8383610d74565b9392505050565b6001600160a01b03918216600090815260016020908152604080832093909416825291909152205490565b60055461010090046001600160a01b03163314610b4c576040805162461bcd60e51b815260206004820152600960248201526827b7363ca7bbb732b960b91b604482015290519081900360640190fd5b6001600160a01b03166000908152600660205260409020805460ff19166001179055565b600082820183811015610aca576040805162461bcd60e51b815260206004820152601b60248201527f536166654d6174683a206164646974696f6e206f766572666c6f770000000000604482015290519081900360640190fd5b6001600160a01b038316610c0f5760405162461bcd60e51b8152600401808060200182810382526024815260200180610f866024913960400191505060405180910390fd5b6001600160a01b038216610c545760405162461bcd60e51b8152600401808060200182810382526022815260200180610ef16022913960400191505060405180910390fd5b6001600160a01b03808416600081815260016020908152604080832094871680845294825291829020859055815185815291517f8c5be1e5ebec7d5bd14f71427d1e84f3dd0314c0f7b2291e5b200ac8c7c3b9259281900390910190a3505050565b6000610cc3848484610d7d565b610d10843361066785604051806060016040528060288152602001610f39602891396001600160a01b038a1660009081526001602090815260408083203384529091529020549190610d1a565b5060019392505050565b60008184841115610d6c5760405162461bcd60e51b81526020600482018181528351602484015283519092839260449091019190850190808383600083156105d95781810151838201526020016105c1565b505050900390565b60006105573384845b6001600160a01b038316610dc25760405162461bcd60e51b8152600401808060200182810382526025815260200180610f616025913960400191505060405180910390fd5b6001600160a01b038216610e075760405162461bcd60e51b8152600401808060200182810382526023815260200180610ece6023913960400191505060405180910390fd5b610e4481604051806060016040528060268152602001610f13602691396001600160a01b0386166000908152602081905260409020549190610d1a565b6001600160a01b038085166000908152602081905260408082209390935590841681522054610e739082610b70565b6001600160a01b038084166000818152602081815260409182902094909455805185815290519193928716927fddf252ad1be2c89b69c2b068fc378daa952ba7f163c4a11628f55a4df523b3ef92918290030190a350505056fe45524332303a207472616e7366657220746f20746865207a65726f206164647265737345524332303a20617070726f766520746f20746865207a65726f206164647265737345524332303a207472616e7366657220616d6f756e7420657863656564732062616c616e636545524332303a207472616e7366657220616d6f756e74206578636565647320616c6c6f77616e636545524332303a207472616e736665722066726f6d20746865207a65726f206164647265737345524332303a20617070726f76652066726f6d20746865207a65726f206164647265737345524332303a2064656372656173656420616c6c6f77616e63652062656c6f77207a65726fa26469706673582212205458319fa4915cc55ef253b5f6060e278246a8e198ef196f7fd613f68d3a60df64736f6c634300060c0033",
  "immutableReferences": {},
  "source": "// SPDX-License-Identifier: MIT\npragma solidity 0.6.12;\n\nimport './ERC20.sol';\nimport '../../interfaces/IRealFundTokenERC20.sol';\n\ncontract RealFundTokenERC20 is IRealFundTokenERC20, ERC20 {\n    address private _owner;\n    mapping(address => bool) private _whitelist;\n\n    modifier onlyOwner() {\n        require(msg.sender == _owner, \"OnlyOwner\");\n        _;\n    }\n\n    constructor(uint256 initialSupply) ERC20(\"RealFund\", \"RFD\") public {\n        _owner = msg.sender;\n        _mint(msg.sender, initialSupply);\n        _whitelist[msg.sender] = true;\n    }\n\n    function changeOwner(address newOwner) external override onlyOwner {\n        _owner = newOwner;\n    }\n\n    function addToWhitelist(address account) external override onlyOwner {\n        _whitelist[account] = true;\n    }\n\n    function removeFromWhitelist(address account) external override onlyOwner {\n        _whitelist[account] = false;\n    }\n\n    function isWhitelisted(address account) external view override returns (bool) {\n        return _whitelist[account];\n    }\n\n    function transfer(address recipient, uint256 amount) public override returns (bool) {\n        require(_whitelist[recipient], toString(recipient));\n        return super.transfer(recipient, amount);\n    }\n\n    function transferFrom(address sender, address recipient, uint256 amount) public override returns (bool) {\n        require(_whitelist[recipient], toString(recipient));\n        return super.transferFrom(sender, recipient, amount);\n    }\n\n    function toString(address account) public pure returns(string memory) {\n    return toString(abi.encodePacked(account));\n}\n\nfunction toString(uint256 value) public pure returns(string memory) {\n    return toString(abi.encodePacked(value));\n}\n\nfunction toString(bytes32 value) public pure returns(string memory) {\n    return toString(abi.encodePacked(value));\n}\n\nfunction toString(bytes memory data) public pure returns(string memory) {\n    bytes memory alphabet = \"0123456789abcdef\";\n\n    bytes memory str = new bytes(2 + data.length * 2);\n    str[0] = \"0\";\n    str[1] = \"x\";\n    for (uint i = 0; i < data.length; i++) {\n        str[2+i*2] = alphabet[uint(uint8(data[i] >> 4))];\n        str[3+i*2] = alphabet[uint(uint8(data[i] & 0x0f))];\n    }\n    return string(str);\n}\n}",
  "sourcePath": "/home/servatj/os/real-fund-smartpool/contracts/realfundToken/token/RealFundTokenERC20.sol",
  "compiler": {
    "name": "solc",
    "version": "0.6.12+commit.27d51765.Emscripten.clang"
  },
  "schemaVersion": "3.3.1",
  "updatedAt": "2020-11-21T10:33:58.413Z",
  "networkType": "ethereum",
  "devdoc": {
    "kind": "dev",
    "methods": {
      "allowance(address,address)": {
        "details": "See {IERC20-allowance}."
      },
      "approve(address,uint256)": {
        "details": "See {IERC20-approve}. Requirements: - `spender` cannot be the zero address."
      },
      "balanceOf(address)": {
        "details": "See {IERC20-balanceOf}."
      },
      "decimals()": {
        "details": "Returns the number of decimals used to get its user representation. For example, if `decimals` equals `2`, a balance of `505` tokens should be displayed to a user as `5,05` (`505 / 10 ** 2`). Tokens usually opt for a value of 18, imitating the relationship between Ether and Wei. This is the value {ERC20} uses, unless {_setupDecimals} is called. NOTE: This information is only used for _display_ purposes: it in no way affects any of the arithmetic of the contract, including {IERC20-balanceOf} and {IERC20-transfer}."
      },
      "decreaseAllowance(address,uint256)": {
        "details": "Atomically decreases the allowance granted to `spender` by the caller. This is an alternative to {approve} that can be used as a mitigation for problems described in {IERC20-approve}. Emits an {Approval} event indicating the updated allowance. Requirements: - `spender` cannot be the zero address. - `spender` must have allowance for the caller of at least `subtractedValue`."
      },
      "increaseAllowance(address,uint256)": {
        "details": "Atomically increases the allowance granted to `spender` by the caller. This is an alternative to {approve} that can be used as a mitigation for problems described in {IERC20-approve}. Emits an {Approval} event indicating the updated allowance. Requirements: - `spender` cannot be the zero address."
      },
      "name()": {
        "details": "Returns the name of the token."
      },
      "symbol()": {
        "details": "Returns the symbol of the token, usually a shorter version of the name."
      },
      "totalSupply()": {
        "details": "See {IERC20-totalSupply}."
      },
      "transfer(address,uint256)": {
        "details": "See {IERC20-transfer}. Requirements: - `recipient` cannot be the zero address. - the caller must have a balance of at least `amount`."
      },
      "transferFrom(address,address,uint256)": {
        "details": "See {IERC20-transferFrom}. Emits an {Approval} event indicating the updated allowance. This is not required by the EIP. See the note at the beginning of {ERC20}; Requirements: - `sender` and `recipient` cannot be the zero address. - `sender` must have a balance of at least `amount`. - the caller must have allowance for ``sender``'s tokens of at least `amount`."
      }
    },
    "version": 1
  },
  "userdoc": {
    "kind": "user",
    "methods": {},
    "version": 1
  }
}