{
  "contractName": "RealFundSwap",
  "abi": [
    {
      "inputs": [
        {
          "internalType": "address",
          "name": "pool",
          "type": "address"
        },
        {
          "internalType": "address",
          "name": "realfund",
          "type": "address"
        },
        {
          "internalType": "address",
          "name": "dai",
          "type": "address"
        }
      ],
      "stateMutability": "nonpayable",
      "type": "constructor"
    },
    {
      "inputs": [
        {
          "internalType": "uint256",
          "name": "daiAmount",
          "type": "uint256"
        }
      ],
      "name": "swapRealfundForDai",
      "outputs": [],
      "stateMutability": "nonpayable",
      "type": "function"
    },
    {
      "inputs": [],
      "name": "getSpotPrice",
      "outputs": [
        {
          "internalType": "uint256",
          "name": "",
          "type": "uint256"
        }
      ],
      "stateMutability": "view",
      "type": "function",
      "constant": true
    },
    {
      "inputs": [],
      "name": "getDaiBalance",
      "outputs": [
        {
          "internalType": "uint256",
          "name": "",
          "type": "uint256"
        }
      ],
      "stateMutability": "view",
      "type": "function",
      "constant": true
    },
    {
      "inputs": [],
      "name": "getRealfundBalance",
      "outputs": [
        {
          "internalType": "uint256",
          "name": "",
          "type": "uint256"
        }
      ],
      "stateMutability": "view",
      "type": "function",
      "constant": true
    }
  ],
  "bytecode": "0x608060405234801561001057600080fd5b5060405161056438038061056483398101604081905261002f91610071565b600080546001600160a01b039485166001600160a01b0319918216179091556001805493851693821693909317909255600280549190931691161790556100d5565b600080600060608486031215610085578283fd5b8351610090816100bd565b60208501519093506100a1816100bd565b60408501519092506100b2816100bd565b809150509250925092565b6001600160a01b03811681146100d257600080fd5b50565b610480806100e46000396000f3fe608060405234801561001057600080fd5b506004361061004c5760003560e01c80635ddc916a146100515780636457ce7d1461006f578063c8e3eeb214610084578063dc76fabc1461008c575b600080fd5b610059610094565b6040516100669190610441565b60405180910390f35b61008261007d366004610373565b61011a565b005b6100596102df565b610059610310565b6002546040516370a0823160e01b81526000916001600160a01b0316906370a08231906100c59030906004016103c6565b60206040518083038186803b1580156100dd57600080fd5b505afa1580156100f1573d6000803e3d6000fd5b505050506040513d601f19601f82011682018060405250810190610115919061038b565b905090565b600080546001546002546040516315e84af960e01b81526064936001600160a01b03908116936315e84af993610158939183169216906004016103da565b60206040518083038186803b15801561017057600080fd5b505afa158015610184573d6000803e3d6000fd5b505050506040513d601f19601f820116820180604052508101906101a8919061038b565b607802816101b257fe5b60015460005460405163095ea7b360e01b8152939092049350848402926001600160a01b039182169263095ea7b3926101f29291169085906004016103f4565b602060405180830381600087803b15801561020c57600080fd5b505af1158015610220573d6000803e3d6000fd5b505050506040513d601f19601f82011682018060405250810190610244919061034c565b50600054600154600254604051631f17a7a960e21b81526001600160a01b0393841693637c5e9ea49361028793908216928792909116908990899060040161040d565b6040805180830381600087803b1580156102a057600080fd5b505af11580156102b4573d6000803e3d6000fd5b505050506040513d601f19601f820116820180604052508101906102d891906103a3565b5050505050565b6001546040516370a0823160e01b81526000916001600160a01b0316906370a08231906100c59030906004016103c6565b600080546001546002546040516315e84af960e01b81526001600160a01b03938416936315e84af9936100c593908216929116906004016103da565b60006020828403121561035d578081fd5b8151801515811461036c578182fd5b9392505050565b600060208284031215610384578081fd5b5035919050565b60006020828403121561039c578081fd5b5051919050565b600080604083850312156103b5578081fd5b505080516020909101519092909150565b6001600160a01b0391909116815260200190565b6001600160a01b0392831681529116602082015260400190565b6001600160a01b03929092168252602082015260400190565b6001600160a01b03958616815260208101949094529190931660408301526060820192909252608081019190915260a00190565b9081526020019056fea2646970667358221220afb6b310f1cec38cecf93e038389cac68cf0f0ef2d9859e782ac2051404c1e3364736f6c634300060c0033",
  "immutableReferences": {},
  "source": "// SPDX-License-Identifier: GPL-3.0-or-later\npragma solidity 0.6.12;\n\n// Needed to handle structures externally\npragma experimental ABIEncoderV2;\n\n// Imports\n\nimport \"../interfaces/IBFactory.sol\";\nimport \"../interfaces/IERC20.sol\";\n\ncontract RealFundSwap {\n\n    IBPool private _pool;\n    address private _realfund;\n    address private _dai;\n\n    constructor(address pool, address realfund, address dai) public {\n        _pool = IBPool(pool);\n        _realfund = realfund;\n        _dai = dai;\n    }\n\n    function swapRealfundForDai(uint daiAmount) external {\n        uint price = _pool.getSpotPrice(_realfund, _dai) * 120 / 100;\n        uint realfundAmount = price * daiAmount;\n        IERC20(_realfund).approve(address(_pool), realfundAmount);\n        _pool.swapExactAmountOut(_realfund,realfundAmount,_dai,daiAmount, price);\n    }\n\n    function getSpotPrice() external view returns(uint) {\n        return _pool.getSpotPrice(_realfund, _dai);\n    }\n\n    function getDaiBalance() external view returns(uint) {\n        return IERC20(_dai).balanceOf(address(this));\n    }\n\n    function getRealfundBalance() external view returns(uint) {\n        return IERC20(_realfund).balanceOf(address(this));\n    }\n}\n",
  "sourcePath": "/home/servatj/os/real-fund-smartpool/contracts/realfundBalancer/RealFundSwap.sol",
  "compiler": {
    "name": "solc",
    "version": "0.6.12+commit.27d51765.Emscripten.clang"
  },
  "schemaVersion": "3.3.1",
  "updatedAt": "2020-11-21T10:33:58.434Z",
  "networkType": "ethereum",
  "devdoc": {
    "kind": "dev",
    "methods": {},
    "version": 1
  },
  "userdoc": {
    "kind": "user",
    "methods": {},
    "version": 1
  }
}