{
  "contractName": "RealFundFactory",
  "abi": [
    {
      "anonymous": false,
      "inputs": [
        {
          "indexed": true,
          "internalType": "address",
          "name": "pool",
          "type": "address"
        },
        {
          "indexed": true,
          "internalType": "address",
          "name": "owner",
          "type": "address"
        }
      ],
      "name": "PoolCreated",
      "type": "event"
    },
    {
      "anonymous": false,
      "inputs": [],
      "name": "TokensAdded",
      "type": "event"
    },
    {
      "inputs": [
        {
          "internalType": "address",
          "name": "factory",
          "type": "address"
        },
        {
          "internalType": "uint256",
          "name": "swapFee",
          "type": "uint256"
        }
      ],
      "name": "createPool",
      "outputs": [
        {
          "internalType": "contract IBPool",
          "name": "pool",
          "type": "address"
        }
      ],
      "stateMutability": "nonpayable",
      "type": "function"
    },
    {
      "inputs": [
        {
          "internalType": "address",
          "name": "pool",
          "type": "address"
        },
        {
          "internalType": "address[]",
          "name": "tokens",
          "type": "address[]"
        },
        {
          "internalType": "uint256[]",
          "name": "balances",
          "type": "uint256[]"
        },
        {
          "internalType": "uint256[]",
          "name": "denorms",
          "type": "uint256[]"
        }
      ],
      "name": "addTokensToPool",
      "outputs": [],
      "stateMutability": "nonpayable",
      "type": "function"
    },
    {
      "inputs": [
        {
          "internalType": "contract IBPool",
          "name": "pool",
          "type": "address"
        }
      ],
      "name": "finalizePool",
      "outputs": [],
      "stateMutability": "nonpayable",
      "type": "function"
    }
  ],
  "bytecode": "0x608060405234801561001057600080fd5b50610a50806100206000396000f3fe608060405234801561001057600080fd5b50600436106100415760003560e01c806307ece70f1461004657806312d361711461005b578063b2df9d7a14610084575b600080fd5b6100596100543660046107c0565b610097565b005b61006e61006936600461088c565b610207565b60405161007b919061090b565b60405180910390f35b6100596100923660046107e3565b610319565b806001600160a01b0316634bb278f36040518163ffffffff1660e01b8152600401600060405180830381600087803b1580156100d257600080fd5b505af11580156100e6573d6000803e3d6000fd5b50506040516370a0823160e01b81526001600160a01b038416925063a9059cbb9150339083906370a082319061012090309060040161090b565b60206040518083038186803b15801561013857600080fd5b505afa15801561014c573d6000803e3d6000fd5b505050506040513d601f19601f8201168201806040525081019061017091906108f3565b6040518363ffffffff1660e01b815260040161018d929190610943565b602060405180830381600087803b1580156101a757600080fd5b505af11580156101bb573d6000803e3d6000fd5b505050506040513d601f19601f820116820180604052508101906101df91906108b7565b6102045760405162461bcd60e51b81526004016101fb906109cf565b60405180910390fd5b50565b6000826001600160a01b031663d556c5dc6040518163ffffffff1660e01b8152600401602060405180830381600087803b15801561024457600080fd5b505af1158015610258573d6000803e3d6000fd5b505050506040513d601f19601f8201168201806040525081019061027c91906108d7565b6040516334e1990760e01b81529091506001600160a01b038216906334e19907906102ab9085906004016109fc565b600060405180830381600087803b1580156102c557600080fd5b505af11580156102d9573d6000803e3d6000fd5b50506040513392506001600160a01b03841691507f4f2ce4e40f623ca765fc0167a25cb7842ceaafb8d82d3dec26ca0d0e0d2d489690600090a392915050565b8483146103385760405162461bcd60e51b81526004016101fb906109a2565b8481146103575760405162461bcd60e51b81526004016101fb906109a2565b60005b8581101561068757600087878381811061037057fe5b905060200201602081019061038591906107c0565b9050806001600160a01b03166323b872dd33308989878181106103a457fe5b905060200201356040518463ffffffff1660e01b81526004016103c99392919061091f565b602060405180830381600087803b1580156103e357600080fd5b505af11580156103f7573d6000803e3d6000fd5b505050506040513d601f19601f8201168201806040525081019061041b91906108b7565b6104375760405162461bcd60e51b81526004016101fb906109cf565b604051636eb1769f60e11b81526000906001600160a01b0383169063dd62ed3e906104689030908e9060040161095c565b60206040518083038186803b15801561048057600080fd5b505afa158015610494573d6000803e3d6000fd5b505050506040513d601f19601f820116820180604052508101906104b891906108f3565b11156105415760405163095ea7b360e01b81526001600160a01b0382169063095ea7b3906104ed908c90600090600401610943565b602060405180830381600087803b15801561050757600080fd5b505af115801561051b573d6000803e3d6000fd5b505050506040513d601f19601f8201168201806040525081019061053f91906108b7565b505b806001600160a01b031663095ea7b38a88888681811061055d57fe5b905060200201356040518363ffffffff1660e01b8152600401610581929190610943565b602060405180830381600087803b15801561059b57600080fd5b505af11580156105af573d6000803e3d6000fd5b505050506040513d601f19601f820116820180604052508101906105d391906108b7565b50886001600160a01b031663e4e1e5388989858181106105ef57fe5b905060200201602081019061060491906107c0565b88888681811061061057fe5b9050602002013587878781811061062357fe5b905060200201356040518463ffffffff1660e01b815260040161064893929190610976565b600060405180830381600087803b15801561066257600080fd5b505af1158015610676573d6000803e3d6000fd5b50506001909301925061035a915050565b506040516324dacaa960e11b81526001600160a01b038816906349b59552906106b590600190600401610997565b600060405180830381600087803b1580156106cf57600080fd5b505af11580156106e3573d6000803e3d6000fd5b50506040516392eefe9b60e01b81526001600160a01b038a1692506392eefe9b915061071390339060040161090b565b600060405180830381600087803b15801561072d57600080fd5b505af1158015610741573d6000803e3d6000fd5b50506040517f83904b27f7fb42248e93f114363c83269eafa65f83834387ca4b5bb1b748316e925060009150a150505050505050565b60008083601f840112610788578182fd5b50813567ffffffffffffffff81111561079f578182fd5b60208301915083602080830285010111156107b957600080fd5b9250929050565b6000602082840312156107d1578081fd5b81356107dc81610a05565b9392505050565b60008060008060008060006080888a0312156107fd578283fd5b873561080881610a05565b9650602088013567ffffffffffffffff80821115610824578485fd5b6108308b838c01610777565b909850965060408a0135915080821115610848578485fd5b6108548b838c01610777565b909650945060608a013591508082111561086c578384fd5b506108798a828b01610777565b989b979a50959850939692959293505050565b6000806040838503121561089e578182fd5b82356108a981610a05565b946020939093013593505050565b6000602082840312156108c8578081fd5b815180151581146107dc578182fd5b6000602082840312156108e8578081fd5b81516107dc81610a05565b600060208284031215610904578081fd5b5051919050565b6001600160a01b0391909116815260200190565b6001600160a01b039384168152919092166020820152604081019190915260600190565b6001600160a01b03929092168252602082015260400190565b6001600160a01b0392831681529116602082015260400190565b6001600160a01b039390931683526020830191909152604082015260600190565b901515815260200190565b60208082526013908201527208aa4a4be988a9c8ea890be9a92a69a82a8869606b1b604082015260600190565b60208082526013908201527211549497d514905394d1915497d19052531151606a1b604082015260600190565b90815260200190565b6001600160a01b038116811461020457600080fdfea2646970667358221220557bea649faa9951a6a9e4e98141243ed29eaba934b7219c64a7e6906fe7c45264736f6c634300060c0033",
  "immutableReferences": {},
  "source": "// SPDX-License-Identifier: GPL-3.0-or-later\npragma solidity 0.6.12;\n\n// Needed to handle structures externally\npragma experimental ABIEncoderV2;\n\n// Imports\n\nimport \"../interfaces/IBFactory.sol\";\nimport \"../interfaces/IRealFundTokenERC20.sol\";\nimport \"../interfaces/IERC20.sol\";\n\n// Contracts\n\n/**\n * @author Balancer Labs\n * @title Configurable Rights Pool Factory - create parameterized smart pools\n * @dev Rights are held in a corresponding struct in ConfigurableRightsPool\n *      Index values are as follows:\n *      0: canPauseSwapping - can setPublicSwap back to false after turning it on\n *                            by default, it is off on initialization and can only be turned on\n *      1: canChangeSwapFee - can setSwapFee after initialization (by default, it is fixed at create time)\n *      2: canChangeWeights - can bind new token weights (allowed by default in base pool)\n *      3: canAddRemoveTokens - can bind/unbind tokens (allowed by default in base pool)\n *      4: canWhitelistLPs - if set, only whitelisted addresses can join pools\n *                           (enables private pools with more than one LP)\n *      5: canChangeCap - can change the BSP cap (max # of pool tokens)\n */\ncontract RealFundFactory {\n\n    event PoolCreated(address indexed pool, address indexed owner);\n    event TokensAdded();\n\n    function createPool(\n        address factory,\n        uint swapFee\n    ) external returns (IBPool pool) {\n\n        pool = IBFactory(factory).newBPool();\n        pool.setSwapFee(swapFee);\n\n        emit PoolCreated(address(pool), msg.sender);\n    }\n\n    function addTokensToPool(\n        address pool,\n        address[] calldata tokens,\n        uint[] calldata balances,\n        uint[] calldata denorms\n    ) external {\n        require(tokens.length == balances.length, \"ERR_LENGTH_MISMATCH\");\n        require(tokens.length == denorms.length, \"ERR_LENGTH_MISMATCH\");\n\n        for (uint i = 0; i < tokens.length; i++) {\n            IERC20 token = IERC20(tokens[i]);\n            require(token.transferFrom(msg.sender, address(this), balances[i]), \"ERR_TRANSFER_FAILED\");\n            if (token.allowance(address(this), address(pool)) > 0) {\n                token.approve(address(pool), 0);\n            }\n            token.approve(address(pool), balances[i]);\n            IBPool(pool).bind(tokens[i], balances[i], denorms[i]);\n        }\n\n        IBPool(pool).setPublicSwap(true);\n        IBPool(pool).setController(msg.sender);\n\n        emit TokensAdded();\n    }\n\n    function finalizePool(IBPool pool) external {\n        pool.finalize();\n        require(pool.transfer(msg.sender, pool.balanceOf(address(this))), \"ERR_TRANSFER_FAILED\");\n    }\n}\n",
  "sourcePath": "/home/servatj/os/real-fund-smartpool/contracts/realfundBalancer/RealFundFactory.sol",
  "compiler": {
    "name": "solc",
    "version": "0.6.12+commit.27d51765.Emscripten.clang"
  },
  "schemaVersion": "3.3.1",
  "updatedAt": "2020-11-21T10:33:58.429Z",
  "networkType": "ethereum",
  "devdoc": {
    "author": "Balancer Labs",
    "details": "Rights are held in a corresponding struct in ConfigurableRightsPool      Index values are as follows:      0: canPauseSwapping - can setPublicSwap back to false after turning it on                            by default, it is off on initialization and can only be turned on      1: canChangeSwapFee - can setSwapFee after initialization (by default, it is fixed at create time)      2: canChangeWeights - can bind new token weights (allowed by default in base pool)      3: canAddRemoveTokens - can bind/unbind tokens (allowed by default in base pool)      4: canWhitelistLPs - if set, only whitelisted addresses can join pools                           (enables private pools with more than one LP)      5: canChangeCap - can change the BSP cap (max # of pool tokens)",
    "kind": "dev",
    "methods": {},
    "title": "Configurable Rights Pool Factory - create parameterized smart pools",
    "version": 1
  },
  "userdoc": {
    "kind": "user",
    "methods": {},
    "version": 1
  }
}